{
  "_format": "hh3-artifact-1",
  "contractName": "CTTreasury",
  "sourceName": "contracts/CTTreasury.sol",
  "abi": [
    {
      "inputs": [
        {
          "internalType": "uint256",
          "name": "_exchangeRate",
          "type": "uint256"
        },
        {
          "internalType": "address",
          "name": "_cTokenAddress",
          "type": "address"
        }
      ],
      "stateMutability": "nonpayable",
      "type": "constructor"
    },
    {
      "inputs": [
        {
          "internalType": "address",
          "name": "owner",
          "type": "address"
        }
      ],
      "name": "OwnableInvalidOwner",
      "type": "error"
    },
    {
      "inputs": [
        {
          "internalType": "address",
          "name": "account",
          "type": "address"
        }
      ],
      "name": "OwnableUnauthorizedAccount",
      "type": "error"
    },
    {
      "anonymous": false,
      "inputs": [
        {
          "indexed": false,
          "internalType": "address",
          "name": "daoAddress",
          "type": "address"
        }
      ],
      "name": "DAOAddressSet",
      "type": "event"
    },
    {
      "anonymous": false,
      "inputs": [
        {
          "indexed": true,
          "internalType": "address",
          "name": "from",
          "type": "address"
        },
        {
          "indexed": false,
          "internalType": "uint256",
          "name": "amount",
          "type": "uint256"
        }
      ],
      "name": "Donated",
      "type": "event"
    },
    {
      "anonymous": false,
      "inputs": [
        {
          "indexed": true,
          "internalType": "address",
          "name": "previousOwner",
          "type": "address"
        },
        {
          "indexed": true,
          "internalType": "address",
          "name": "newOwner",
          "type": "address"
        }
      ],
      "name": "OwnershipTransferred",
      "type": "event"
    },
    {
      "inputs": [],
      "name": "cDAOAddress",
      "outputs": [
        {
          "internalType": "address",
          "name": "",
          "type": "address"
        }
      ],
      "stateMutability": "view",
      "type": "function"
    },
    {
      "inputs": [],
      "name": "cTokenAddress",
      "outputs": [
        {
          "internalType": "address",
          "name": "",
          "type": "address"
        }
      ],
      "stateMutability": "view",
      "type": "function"
    },
    {
      "inputs": [],
      "name": "donate",
      "outputs": [],
      "stateMutability": "payable",
      "type": "function"
    },
    {
      "inputs": [],
      "name": "exchangeRate",
      "outputs": [
        {
          "internalType": "uint256",
          "name": "",
          "type": "uint256"
        }
      ],
      "stateMutability": "view",
      "type": "function"
    },
    {
      "inputs": [
        {
          "internalType": "uint256",
          "name": "_amount",
          "type": "uint256"
        },
        {
          "internalType": "address payable",
          "name": "_to",
          "type": "address"
        }
      ],
      "name": "fund",
      "outputs": [],
      "stateMutability": "nonpayable",
      "type": "function"
    },
    {
      "inputs": [],
      "name": "getBalance",
      "outputs": [
        {
          "internalType": "uint256",
          "name": "",
          "type": "uint256"
        }
      ],
      "stateMutability": "view",
      "type": "function"
    },
    {
      "inputs": [],
      "name": "owner",
      "outputs": [
        {
          "internalType": "address",
          "name": "",
          "type": "address"
        }
      ],
      "stateMutability": "view",
      "type": "function"
    },
    {
      "inputs": [],
      "name": "renounceOwnership",
      "outputs": [],
      "stateMutability": "nonpayable",
      "type": "function"
    },
    {
      "inputs": [
        {
          "internalType": "address",
          "name": "_newDAOAddress",
          "type": "address"
        }
      ],
      "name": "setDAOAddres",
      "outputs": [],
      "stateMutability": "nonpayable",
      "type": "function"
    },
    {
      "inputs": [
        {
          "internalType": "address",
          "name": "newOwner",
          "type": "address"
        }
      ],
      "name": "transferOwnership",
      "outputs": [],
      "stateMutability": "nonpayable",
      "type": "function"
    },
    {
      "stateMutability": "payable",
      "type": "receive"
    }
  ],
  "bytecode": "0x608060405234801561000f575f5ffd5b506040516106d33803806106d383398101604081905261002e916100d6565b338061005357604051631e4fbdf760e01b81525f600482015260240160405180910390fd5b61005c81610087565b50600191909155600280546001600160a01b0319166001600160a01b03909216919091179055610110565b5f80546001600160a01b038381166001600160a01b0319831681178455604051919092169283917f8be0079c531659141344cd1fd0a4f28419497f9722a3daafe3b4186f6b6457e09190a35050565b5f5f604083850312156100e7575f5ffd5b825160208401519092506001600160a01b0381168114610105575f5ffd5b809150509250929050565b6105b68061011d5f395ff3fe608060405260043610610092575f3560e01c8063833e231e11610057578063833e231e146101475780638da5cb5b14610166578063ed88c68e14610182578063eee923951461018a578063f2fde38b146101a9575f5ffd5b806312065fe0146100a7578063399164cc146100c85780633ba0b9a9146100e7578063715018a6146100fc5780637390199f14610110575f5ffd5b366100a3576100a133346101c8565b005b5f5ffd5b3480156100b2575f5ffd5b50475b6040519081526020015b60405180910390f35b3480156100d3575f5ffd5b506100a16100e2366004610511565b610290565b3480156100f2575f5ffd5b506100b560015481565b348015610107575f5ffd5b506100a16102ec565b34801561011b575f5ffd5b5060035461012f906001600160a01b031681565b6040516001600160a01b0390911681526020016100bf565b348015610152575f5ffd5b5060025461012f906001600160a01b031681565b348015610171575f5ffd5b505f546001600160a01b031661012f565b6100a16102ff565b348015610195575f5ffd5b506100a16101a4366004610533565b610309565b3480156101b4575f5ffd5b506100a16101c3366004610511565b610445565b6002546001546001600160a01b03909116905f906101e69034610561565b6040516340c10f1960e01b81526001600160a01b03868116600483015260248201839052919250908316906340c10f19906044015f604051808303815f87803b158015610231575f5ffd5b505af1158015610243573d5f5f3e3d5ffd5b50505050836001600160a01b03167f2a01595cddf097c90216094025db714da3f4e5bd8877b56ba86a24ecead8e5438460405161028291815260200190565b60405180910390a250505050565b610298610482565b600380546001600160a01b0319166001600160a01b0383169081179091556040519081527f7138c17e9cd38b1f65ba47723efdaec045a981aa53992018fd215e5c09a22fc49060200160405180910390a150565b6102f4610482565b6102fd5f6104ae565b565b6102fd33346101c8565b6003546001600160a01b031633146103685760405162461bcd60e51b815260206004820152601e60248201527f6f6e6c79207468652044414f2063616e2063616c6c207468652066756e64000060448201526064015b60405180910390fd5b814710156103af5760405162461bcd60e51b8152602060048201526014602482015273496e73756666696369656e742062616c616e636560601b604482015260640161035f565b5f816001600160a01b0316836040515f6040518083038185875af1925050503d805f81146103f8576040519150601f19603f3d011682016040523d82523d5f602084013e6103fd565b606091505b50509050806104405760405162461bcd60e51b815260206004820152600f60248201526e151c985b9cd9995c8819985a5b1959608a1b604482015260640161035f565b505050565b61044d610482565b6001600160a01b03811661047657604051631e4fbdf760e01b81525f600482015260240161035f565b61047f816104ae565b50565b5f546001600160a01b031633146102fd5760405163118cdaa760e01b815233600482015260240161035f565b5f80546001600160a01b038381166001600160a01b0319831681178455604051919092169283917f8be0079c531659141344cd1fd0a4f28419497f9722a3daafe3b4186f6b6457e09190a35050565b6001600160a01b038116811461047f575f5ffd5b5f60208284031215610521575f5ffd5b813561052c816104fd565b9392505050565b5f5f60408385031215610544575f5ffd5b823591506020830135610556816104fd565b809150509250929050565b5f8261057b57634e487b7160e01b5f52601260045260245ffd5b50049056fea2646970667358221220a1ea8808784e60732c2e24ac09d2cd8a2e73f73fc3ca7f96f346fd266c4742c064736f6c634300081c0033",
  "linkReferences": {},
  "deployedLinkReferences": {},
  "immutableReferences": {},
  "inputSourceName": "project/contracts/CTTreasury.sol",
  "buildInfoId": "solc-0_8_28-c01b1795d499bebb13c57784fe453ad3b1391f1f"
}