{
  "_format": "hh3-artifact-1",
  "contractName": "CTDAO",
  "sourceName": "contracts/CTDAO.sol",
  "abi": [
    {
      "inputs": [
        {
          "internalType": "address payable",
          "name": "_cTTreasuryAddress",
          "type": "address"
        },
        {
          "internalType": "address[]",
          "name": "initialMembers",
          "type": "address[]"
        }
      ],
      "stateMutability": "nonpayable",
      "type": "constructor"
    },
    {
      "anonymous": false,
      "inputs": [
        {
          "indexed": false,
          "internalType": "uint256",
          "name": "proposalId",
          "type": "uint256"
        },
        {
          "indexed": false,
          "internalType": "string",
          "name": "description",
          "type": "string"
        }
      ],
      "name": "ProposalCreated",
      "type": "event"
    },
    {
      "anonymous": false,
      "inputs": [
        {
          "indexed": false,
          "internalType": "uint256",
          "name": "proposalId",
          "type": "uint256"
        }
      ],
      "name": "ProposalExecuted",
      "type": "event"
    },
    {
      "anonymous": false,
      "inputs": [
        {
          "indexed": false,
          "internalType": "uint256",
          "name": "proposalId",
          "type": "uint256"
        },
        {
          "indexed": false,
          "internalType": "address",
          "name": "voter",
          "type": "address"
        }
      ],
      "name": "Voted",
      "type": "event"
    },
    {
      "inputs": [],
      "name": "cTTreasuryAddress",
      "outputs": [
        {
          "internalType": "address payable",
          "name": "",
          "type": "address"
        }
      ],
      "stateMutability": "view",
      "type": "function"
    },
    {
      "inputs": [
        {
          "internalType": "string",
          "name": "_description",
          "type": "string"
        },
        {
          "internalType": "uint256",
          "name": "budget",
          "type": "uint256"
        },
        {
          "internalType": "address payable",
          "name": "beneficiary",
          "type": "address"
        },
        {
          "internalType": "address",
          "name": "approver",
          "type": "address"
        }
      ],
      "name": "createProposal",
      "outputs": [],
      "stateMutability": "nonpayable",
      "type": "function"
    },
    {
      "inputs": [
        {
          "internalType": "uint256",
          "name": "_proposalId",
          "type": "uint256"
        }
      ],
      "name": "executeProposal",
      "outputs": [],
      "stateMutability": "nonpayable",
      "type": "function"
    },
    {
      "inputs": [
        {
          "internalType": "address",
          "name": "",
          "type": "address"
        }
      ],
      "name": "members",
      "outputs": [
        {
          "internalType": "bool",
          "name": "",
          "type": "bool"
        }
      ],
      "stateMutability": "view",
      "type": "function"
    },
    {
      "inputs": [],
      "name": "proposalCount",
      "outputs": [
        {
          "internalType": "uint256",
          "name": "",
          "type": "uint256"
        }
      ],
      "stateMutability": "view",
      "type": "function"
    },
    {
      "inputs": [
        {
          "internalType": "uint256",
          "name": "",
          "type": "uint256"
        }
      ],
      "name": "proposals",
      "outputs": [
        {
          "internalType": "string",
          "name": "description",
          "type": "string"
        },
        {
          "internalType": "uint256",
          "name": "budget",
          "type": "uint256"
        },
        {
          "internalType": "address payable",
          "name": "beneficiary",
          "type": "address"
        },
        {
          "internalType": "address",
          "name": "approver",
          "type": "address"
        },
        {
          "internalType": "uint256",
          "name": "votes",
          "type": "uint256"
        },
        {
          "internalType": "bool",
          "name": "executed",
          "type": "bool"
        }
      ],
      "stateMutability": "view",
      "type": "function"
    },
    {
      "inputs": [
        {
          "internalType": "uint256",
          "name": "_proposalId",
          "type": "uint256"
        }
      ],
      "name": "vote",
      "outputs": [],
      "stateMutability": "nonpayable",
      "type": "function"
    }
  ],
  "bytecode": "0x608060405234801561000f575f5ffd5b506040516114c63803806114c683398101604081905261002e9161011b565b600480546001600160a01b0319166001600160a01b0384161790555f5b81518110156100d8576001805f84848151811061006a5761006a6101fb565b6020908102919091018101516001600160a01b031682528101919091526040015f908120805460ff1916921515929092179091556002805461ffff16916100b08361020f565b91906101000a81548161ffff021916908361ffff16021790555050808060010191505061004b565b50505061023b565b6001600160a01b03811681146100f4575f5ffd5b50565b634e487b7160e01b5f52604160045260245ffd5b8051610116816100e0565b919050565b5f5f6040838503121561012c575f5ffd5b8251610137816100e0565b60208401519092506001600160401b03811115610152575f5ffd5b8301601f81018513610162575f5ffd5b80516001600160401b0381111561017b5761017b6100f7565b604051600582901b90603f8201601f191681016001600160401b03811182821017156101a9576101a96100f7565b6040529182526020818401810192908101888411156101c6575f5ffd5b6020850194505b838510156101ec576101de8561010b565b8152602094850194016101cd565b50809450505050509250929050565b634e487b7160e01b5f52603260045260245ffd5b5f61ffff821661ffff810361023257634e487b7160e01b5f52601160045260245ffd5b60010192915050565b61127e806102485f395ff3fe608060405234801561000f575f5ffd5b506004361061007a575f3560e01c80630d61b519116100585780630d61b519146100f3578063622728a1146101065780638a762f3214610119578063da35c66414610144575f5ffd5b80630121b93f1461007e578063013cf08b1461009357806308ae4b0c146100c1575b5f5ffd5b61009161008c36600461075a565b61015b565b005b6100a66100a136600461075a565b610242565b6040516100b89695949392919061079f565b60405180910390f35b6100e36100cf36600461080d565b60016020525f908152604090205460ff1681565b60405190151581526020016100b8565b61009161010136600461075a565b61030b565b610091610114366004610843565b61060a565b60045461012c906001600160a01b031681565b6040516001600160a01b0390911681526020016100b8565b61014d60035481565b6040519081526020016100b8565b335f9081526001602052604090205460ff166101925760405162461bcd60e51b81526004016101899061091d565b60405180910390fd5b5f8181526020819052604090206005015460ff16156101e65760405162461bcd60e51b815260206004820152601060248201526f105b1c9958591e48195e1958dd5d195960821b6044820152606401610189565b5f8181526020819052604081206004018054916102028361095b565b9091555050604080518281523360208201527f030b0f8dcd86a031eddb071f91882edeac8173663ba775713b677b42b51be44b910160405180910390a150565b5f6020819052908152604090208054819061025c90610973565b80601f016020809104026020016040519081016040528092919081815260200182805461028890610973565b80156102d35780601f106102aa576101008083540402835291602001916102d3565b820191905f5260205f20905b8154815290600101906020018083116102b657829003601f168201915b5050506001840154600285015460038601546004870154600590970154959692956001600160a01b0392831695509116925060ff1686565b335f9081526001602052604090205460ff166103395760405162461bcd60e51b81526004016101899061091d565b6002805461034b919061ffff166109ab565b6103569060016109da565b61ffff165f5f8381526020019081526020015f206004015410156103af5760405162461bcd60e51b815260206004820152601060248201526f4e6f7420656e6f75676820766f74657360801b6044820152606401610189565b5f8181526020819052604090206005015460ff16156104035760405162461bcd60e51b815260206004820152601060248201526f105b1c9958591e48195e1958dd5d195960821b6044820152606401610189565b6004805460408051629032ff60e51b815290516001600160a01b039092169283926312065fe09280830192602092918290030181865afa158015610449573d5f5f3e3d5ffd5b505050506040513d601f19601f8201168201806040525081019061046d91906109fa565b5f8381526020819052604090206001015411156104cc5760405162461bcd60e51b815260206004820152601d60248201527f6e6f7420656e6f7567682062756467657420666f722070726f6a6563740000006044820152606401610189565b5f8281526020819052604080822060028101546003820154925191926001600160a01b03918216929116906105009061074d565b61050c93929190610a11565b604051809103905ff080158015610525573d5f5f3e3d5ffd5b505f84815260208190526040902060010154909150156105b0575f838152602081905260409081902060010154905163eee9239560e01b815260048101919091526001600160a01b03828116602483015283169063eee92395906044015f604051808303815f87803b158015610599575f5ffd5b505af11580156105ab573d5f5f3e3d5ffd5b505050505b5f8381526020819052604090819020600501805460ff19166001179055517f712ae1383f79ac853f8d882153778e0260ef8f03b504e2866e0593e04d2b291f906105fd9085815260200190565b60405180910390a1505050565b335f9081526001602052604090205460ff166106385760405162461bcd60e51b81526004016101899061091d565b6040805160c08101825285815260208082018690526001600160a01b0380861683850152841660608301525f6080830181905260a08301819052600354815290819052919091208151819061068d9082610b05565b50602082015160018201556040808301516002830180546001600160a01b03199081166001600160a01b0393841617909155606085015160038086018054909316919093161790556080840151600484015560a0909301516005909201805460ff191692151592909217909155905490517f9c770c289ab5bf7e57cb1d23c8ceae993aea46eb64847072fd3d78ca60d3e4329161072b918790610bc0565b60405180910390a160038054905f6107428361095b565b919050555050505050565b61067080610bd983390190565b5f6020828403121561076a575f5ffd5b5035919050565b5f81518084528060208401602086015e5f602082860101526020601f19601f83011685010191505092915050565b60c081525f6107b160c0830189610771565b6020830197909752506001600160a01b039485166040820152929093166060830152608082015290151560a090910152919050565b6001600160a01b03811681146107fa575f5ffd5b50565b8035610808816107e6565b919050565b5f6020828403121561081d575f5ffd5b8135610828816107e6565b9392505050565b634e487b7160e01b5f52604160045260245ffd5b5f5f5f5f60808587031215610856575f5ffd5b843567ffffffffffffffff81111561086c575f5ffd5b8501601f8101871361087c575f5ffd5b803567ffffffffffffffff8111156108965761089661082f565b604051601f8201601f19908116603f0116810167ffffffffffffffff811182821017156108c5576108c561082f565b6040528181528282016020018910156108dc575f5ffd5b816020840160208301375f6020928201830152955086013593506109049050604086016107fd565b9150610912606086016107fd565b905092959194509250565b60208082526010908201526f2737ba1030902220a79036b2b6b132b960811b604082015260600190565b634e487b7160e01b5f52601160045260245ffd5b5f6001820161096c5761096c610947565b5060010190565b600181811c9082168061098757607f821691505b6020821081036109a557634e487b7160e01b5f52602260045260245ffd5b50919050565b5f61ffff8316806109ca57634e487b7160e01b5f52601260045260245ffd5b8061ffff84160491505092915050565b61ffff81811683821601908111156109f4576109f4610947565b92915050565b5f60208284031215610a0a575f5ffd5b5051919050565b606081525f5f8554610a2281610973565b806060860152600182165f8114610a405760018114610a5c57610a8d565b60ff1983166080870152608082151560051b8701019350610a8d565b885f5260205f205f5b83811015610a8457815488820160800152600190910190602001610a65565b87016080019450505b5050506001600160a01b038516602084015290506001600160a01b03831660408301525b949350505050565b601f821115610b0057805f5260205f20601f840160051c81016020851015610ade5750805b601f840160051c820191505b81811015610afd575f8155600101610aea565b50505b505050565b815167ffffffffffffffff811115610b1f57610b1f61082f565b610b3381610b2d8454610973565b84610ab9565b6020601f821160018114610b65575f8315610b4e5750848201515b5f19600385901b1c1916600184901b178455610afd565b5f84815260208120601f198516915b82811015610b945787850151825560209485019460019092019101610b74565b5084821015610bb157868401515f19600387901b60f8161c191681555b50505050600190811b01905550565b828152604060208201525f610ab1604083018461077156fe608060405234801561000f575f5ffd5b5060405161067038038061067083398101604081905261002e9161009b565b5f61003984826101ef565b50600180546001600160a01b039384166001600160a01b03199182161790915560028054929093169116179055506102a9565b634e487b7160e01b5f52604160045260245ffd5b80516001600160a01b0381168114610096575f5ffd5b919050565b5f5f5f606084860312156100ad575f5ffd5b83516001600160401b038111156100c2575f5ffd5b8401601f810186136100d2575f5ffd5b80516001600160401b038111156100eb576100eb61006c565b604051601f8201601f19908116603f011681016001600160401b03811182821017156101195761011961006c565b604052818152828201602001881015610130575f5ffd5b8160208401602083015e5f6020838301015280955050505061015460208501610080565b915061016260408501610080565b90509250925092565b600181811c9082168061017f57607f821691505b60208210810361019d57634e487b7160e01b5f52602260045260245ffd5b50919050565b601f8211156101ea57805f5260205f20601f840160051c810160208510156101c85750805b601f840160051c820191505b818110156101e7575f81556001016101d4565b50505b505050565b81516001600160401b038111156102085761020861006c565b61021c81610216845461016b565b846101a3565b6020601f82116001811461024e575f83156102375750848201515b5f19600385901b1c1916600184901b1784556101e7565b5f84815260208120601f198516915b8281101561027d578785015182556020948501946001909201910161025d565b508482101561029a57868401515f19600387901b60f8161c191681555b50505050600190811b01905550565b6103ba806102b65f395ff3fe608060405260043610610071575f3560e01c806319d40b081161004c57806319d40b08146100e857806338af3eed146101185780634e71d92d146101375780639a33e3001461014b575f5ffd5b806312065fe01461007c57806312424e3f1461009b578063141a8dd8146100b1575f5ffd5b3661007857005b5f5ffd5b348015610087575f5ffd5b506040514781526020015b60405180910390f35b3480156100a6575f5ffd5b506100af61016c565b005b3480156100bc575f5ffd5b506002546100d0906001600160a01b031681565b6040516001600160a01b039091168152602001610092565b3480156100f3575f5ffd5b5060025461010890600160a01b900460ff1681565b6040519015158152602001610092565b348015610123575f5ffd5b506001546100d0906001600160a01b031681565b348015610142575f5ffd5b506100af610197565b348015610156575f5ffd5b5061015f61028c565b6040516100929190610317565b6002546001600160a01b03163314610182575f5ffd5b6002805460ff60a01b1916600160a01b179055565b600254600160a01b900460ff1615156001146101fa5760405162461bcd60e51b815260206004820152601c60248201527f636c61696d20776f726b73206f6e6c7920696620617070726f7665640000000060448201526064015b60405180910390fd5b6001546001600160a01b031633146102545760405162461bcd60e51b815260206004820152601a60248201527f6f6e6c792062656e65666963696172792063616e20636c61696d00000000000060448201526064016101f1565b6001546001600160a01b03166108fc476040518115909202915f818181858888f19350505050158015610289573d5f5f3e3d5ffd5b50565b5f80546102989061034c565b80601f01602080910402602001604051908101604052809291908181526020018280546102c49061034c565b801561030f5780601f106102e65761010080835404028352916020019161030f565b820191905f5260205f20905b8154815290600101906020018083116102f257829003601f168201915b505050505081565b602081525f82518060208401528060208501604085015e5f604082850101526040601f19601f83011684010191505092915050565b600181811c9082168061036057607f821691505b60208210810361037e57634e487b7160e01b5f52602260045260245ffd5b5091905056fea264697066735822122064c823900eb2678d96fa0dba30d8123325ad647d772df9324d7e06b1526df4bb64736f6c634300081c0033a26469706673582212207e95f91cd3a921e4daaf5c34a8fad446109a263b2b99540ae9a44c3459f9dbc964736f6c634300081c0033",
  "linkReferences": {},
  "deployedLinkReferences": {},
  "immutableReferences": {},
  "inputSourceName": "project/contracts/CTDAO.sol",
  "buildInfoId": "solc-0_8_28-c4ee6c6a8028f057bff8491165456c21c6e6670b"
}