{
  "_format": "hh3-artifact-1",
  "contractName": "CTToken",
  "sourceName": "contracts/CTToken.sol",
  "abi": [
    {
      "inputs": [],
      "stateMutability": "nonpayable",
      "type": "constructor"
    },
    {
      "inputs": [
        {
          "internalType": "address",
          "name": "spender",
          "type": "address"
        },
        {
          "internalType": "uint256",
          "name": "allowance",
          "type": "uint256"
        },
        {
          "internalType": "uint256",
          "name": "needed",
          "type": "uint256"
        }
      ],
      "name": "ERC20InsufficientAllowance",
      "type": "error"
    },
    {
      "inputs": [
        {
          "internalType": "address",
          "name": "sender",
          "type": "address"
        },
        {
          "internalType": "uint256",
          "name": "balance",
          "type": "uint256"
        },
        {
          "internalType": "uint256",
          "name": "needed",
          "type": "uint256"
        }
      ],
      "name": "ERC20InsufficientBalance",
      "type": "error"
    },
    {
      "inputs": [
        {
          "internalType": "address",
          "name": "approver",
          "type": "address"
        }
      ],
      "name": "ERC20InvalidApprover",
      "type": "error"
    },
    {
      "inputs": [
        {
          "internalType": "address",
          "name": "receiver",
          "type": "address"
        }
      ],
      "name": "ERC20InvalidReceiver",
      "type": "error"
    },
    {
      "inputs": [
        {
          "internalType": "address",
          "name": "sender",
          "type": "address"
        }
      ],
      "name": "ERC20InvalidSender",
      "type": "error"
    },
    {
      "inputs": [
        {
          "internalType": "address",
          "name": "spender",
          "type": "address"
        }
      ],
      "name": "ERC20InvalidSpender",
      "type": "error"
    },
    {
      "inputs": [
        {
          "internalType": "address",
          "name": "owner",
          "type": "address"
        }
      ],
      "name": "OwnableInvalidOwner",
      "type": "error"
    },
    {
      "inputs": [
        {
          "internalType": "address",
          "name": "account",
          "type": "address"
        }
      ],
      "name": "OwnableUnauthorizedAccount",
      "type": "error"
    },
    {
      "anonymous": false,
      "inputs": [
        {
          "indexed": true,
          "internalType": "address",
          "name": "owner",
          "type": "address"
        },
        {
          "indexed": true,
          "internalType": "address",
          "name": "spender",
          "type": "address"
        },
        {
          "indexed": false,
          "internalType": "uint256",
          "name": "value",
          "type": "uint256"
        }
      ],
      "name": "Approval",
      "type": "event"
    },
    {
      "anonymous": false,
      "inputs": [
        {
          "indexed": true,
          "internalType": "address",
          "name": "previousOwner",
          "type": "address"
        },
        {
          "indexed": true,
          "internalType": "address",
          "name": "newOwner",
          "type": "address"
        }
      ],
      "name": "OwnershipTransferred",
      "type": "event"
    },
    {
      "anonymous": false,
      "inputs": [
        {
          "indexed": true,
          "internalType": "address",
          "name": "from",
          "type": "address"
        },
        {
          "indexed": true,
          "internalType": "address",
          "name": "to",
          "type": "address"
        },
        {
          "indexed": false,
          "internalType": "uint256",
          "name": "value",
          "type": "uint256"
        }
      ],
      "name": "Transfer",
      "type": "event"
    },
    {
      "anonymous": false,
      "inputs": [
        {
          "indexed": false,
          "internalType": "address",
          "name": "",
          "type": "address"
        }
      ],
      "name": "TreasuryAddressSet",
      "type": "event"
    },
    {
      "inputs": [
        {
          "internalType": "address",
          "name": "owner",
          "type": "address"
        },
        {
          "internalType": "address",
          "name": "spender",
          "type": "address"
        }
      ],
      "name": "allowance",
      "outputs": [
        {
          "internalType": "uint256",
          "name": "",
          "type": "uint256"
        }
      ],
      "stateMutability": "view",
      "type": "function"
    },
    {
      "inputs": [
        {
          "internalType": "address",
          "name": "spender",
          "type": "address"
        },
        {
          "internalType": "uint256",
          "name": "value",
          "type": "uint256"
        }
      ],
      "name": "approve",
      "outputs": [
        {
          "internalType": "bool",
          "name": "",
          "type": "bool"
        }
      ],
      "stateMutability": "nonpayable",
      "type": "function"
    },
    {
      "inputs": [
        {
          "internalType": "address",
          "name": "account",
          "type": "address"
        }
      ],
      "name": "balanceOf",
      "outputs": [
        {
          "internalType": "uint256",
          "name": "",
          "type": "uint256"
        }
      ],
      "stateMutability": "view",
      "type": "function"
    },
    {
      "inputs": [],
      "name": "cTTreasuryAddress",
      "outputs": [
        {
          "internalType": "address",
          "name": "",
          "type": "address"
        }
      ],
      "stateMutability": "view",
      "type": "function"
    },
    {
      "inputs": [],
      "name": "decimals",
      "outputs": [
        {
          "internalType": "uint8",
          "name": "",
          "type": "uint8"
        }
      ],
      "stateMutability": "view",
      "type": "function"
    },
    {
      "inputs": [
        {
          "internalType": "address",
          "name": "beneficiary",
          "type": "address"
        },
        {
          "internalType": "uint256",
          "name": "amount",
          "type": "uint256"
        }
      ],
      "name": "mint",
      "outputs": [],
      "stateMutability": "nonpayable",
      "type": "function"
    },
    {
      "inputs": [],
      "name": "name",
      "outputs": [
        {
          "internalType": "string",
          "name": "",
          "type": "string"
        }
      ],
      "stateMutability": "view",
      "type": "function"
    },
    {
      "inputs": [],
      "name": "owner",
      "outputs": [
        {
          "internalType": "address",
          "name": "",
          "type": "address"
        }
      ],
      "stateMutability": "view",
      "type": "function"
    },
    {
      "inputs": [],
      "name": "renounceOwnership",
      "outputs": [],
      "stateMutability": "nonpayable",
      "type": "function"
    },
    {
      "inputs": [
        {
          "internalType": "address",
          "name": "_treasuryAddress",
          "type": "address"
        }
      ],
      "name": "setTreasuryAddress",
      "outputs": [],
      "stateMutability": "nonpayable",
      "type": "function"
    },
    {
      "inputs": [],
      "name": "symbol",
      "outputs": [
        {
          "internalType": "string",
          "name": "",
          "type": "string"
        }
      ],
      "stateMutability": "view",
      "type": "function"
    },
    {
      "inputs": [],
      "name": "totalSupply",
      "outputs": [
        {
          "internalType": "uint256",
          "name": "",
          "type": "uint256"
        }
      ],
      "stateMutability": "view",
      "type": "function"
    },
    {
      "inputs": [
        {
          "internalType": "address",
          "name": "to",
          "type": "address"
        },
        {
          "internalType": "uint256",
          "name": "value",
          "type": "uint256"
        }
      ],
      "name": "transfer",
      "outputs": [
        {
          "internalType": "bool",
          "name": "",
          "type": "bool"
        }
      ],
      "stateMutability": "nonpayable",
      "type": "function"
    },
    {
      "inputs": [
        {
          "internalType": "address",
          "name": "from",
          "type": "address"
        },
        {
          "internalType": "address",
          "name": "to",
          "type": "address"
        },
        {
          "internalType": "uint256",
          "name": "value",
          "type": "uint256"
        }
      ],
      "name": "transferFrom",
      "outputs": [
        {
          "internalType": "bool",
          "name": "",
          "type": "bool"
        }
      ],
      "stateMutability": "nonpayable",
      "type": "function"
    },
    {
      "inputs": [
        {
          "internalType": "address",
          "name": "newOwner",
          "type": "address"
        }
      ],
      "name": "transferOwnership",
      "outputs": [],
      "stateMutability": "nonpayable",
      "type": "function"
    }
  ],
  "bytecode": "0x608060405234801561000f575f5ffd5b50336040518060400160405280600981526020016843686172695472656560b81b8152506040518060400160405280600381526020016210d51560ea1b815250816003908161005e9190610193565b50600461006b8282610193565b5050506001600160a01b03811661009b57604051631e4fbdf760e01b81525f600482015260240160405180910390fd5b6100a4816100aa565b5061024d565b600580546001600160a01b038381166001600160a01b0319831681179093556040519116919082907f8be0079c531659141344cd1fd0a4f28419497f9722a3daafe3b4186f6b6457e0905f90a35050565b634e487b7160e01b5f52604160045260245ffd5b600181811c9082168061012357607f821691505b60208210810361014157634e487b7160e01b5f52602260045260245ffd5b50919050565b601f82111561018e57805f5260205f20601f840160051c8101602085101561016c5750805b601f840160051c820191505b8181101561018b575f8155600101610178565b50505b505050565b81516001600160401b038111156101ac576101ac6100fb565b6101c0816101ba845461010f565b84610147565b6020601f8211600181146101f2575f83156101db5750848201515b5f19600385901b1c1916600184901b17845561018b565b5f84815260208120601f198516915b828110156102215787850151825560209485019460019092019101610201565b508482101561023e57868401515f19600387901b60f8161c191681555b50505050600190811b01905550565b61099e8061025a5f395ff3fe608060405234801561000f575f5ffd5b50600436106100f0575f3560e01c806370a082311161009357806395d89b411161006357806395d89b41146101fd578063a9059cbb14610205578063dd62ed3e14610218578063f2fde38b14610250575f5ffd5b806370a0823114610191578063715018a6146101b95780638a762f32146101c15780638da5cb5b146101ec575f5ffd5b806323b872dd116100ce57806323b872dd14610147578063313ce5671461015a57806340c10f19146101695780636605bfda1461017e575f5ffd5b806306fdde03146100f4578063095ea7b31461011257806318160ddd14610135575b5f5ffd5b6100fc610263565b604051610109919061080e565b60405180910390f35b61012561012036600461085e565b6102f3565b6040519015158152602001610109565b6002545b604051908152602001610109565b610125610155366004610886565b61030c565b60405160128152602001610109565b61017c61017736600461085e565b61032f565b005b61017c61018c3660046108c0565b6103b1565b61013961019f3660046108c0565b6001600160a01b03165f9081526020819052604090205490565b61017c61040d565b6006546101d4906001600160a01b031681565b6040516001600160a01b039091168152602001610109565b6005546001600160a01b03166101d4565b6100fc610420565b61012561021336600461085e565b61042f565b6101396102263660046108e0565b6001600160a01b039182165f90815260016020908152604080832093909416825291909152205490565b61017c61025e3660046108c0565b61043c565b60606003805461027290610911565b80601f016020809104026020016040519081016040528092919081815260200182805461029e90610911565b80156102e95780601f106102c0576101008083540402835291602001916102e9565b820191905f5260205f20905b8154815290600101906020018083116102cc57829003601f168201915b5050505050905090565b5f33610300818585610479565b60019150505b92915050565b5f3361031985828561048b565b610324858585610507565b506001949350505050565b6006546001600160a01b031633146103a35760405162461bcd60e51b815260206004820152602c60248201527f6d696e74696e672063616e206f6e6c792062652063616c6c65642066726f6d2060448201526b74686520747265617375727960a01b60648201526084015b60405180910390fd5b6103ad8282610564565b5050565b6103b9610598565b600680546001600160a01b0319166001600160a01b0383169081179091556040519081527f5cc4bdb402e519d4921d6bfaca9c17c16ea3a8e658ff5accd29e6080635562ce9060200160405180910390a150565b610415610598565b61041e5f6105c5565b565b60606004805461027290610911565b5f33610300818585610507565b610444610598565b6001600160a01b03811661046d57604051631e4fbdf760e01b81525f600482015260240161039a565b610476816105c5565b50565b6104868383836001610616565b505050565b6001600160a01b038381165f908152600160209081526040808320938616835292905220545f1981101561050157818110156104f357604051637dc7a0d960e11b81526001600160a01b0384166004820152602481018290526044810183905260640161039a565b61050184848484035f610616565b50505050565b6001600160a01b03831661053057604051634b637e8f60e11b81525f600482015260240161039a565b6001600160a01b0382166105595760405163ec442f0560e01b81525f600482015260240161039a565b6104868383836106e8565b6001600160a01b03821661058d5760405163ec442f0560e01b81525f600482015260240161039a565b6103ad5f83836106e8565b6005546001600160a01b0316331461041e5760405163118cdaa760e01b815233600482015260240161039a565b600580546001600160a01b038381166001600160a01b0319831681179093556040519116919082907f8be0079c531659141344cd1fd0a4f28419497f9722a3daafe3b4186f6b6457e0905f90a35050565b6001600160a01b03841661063f5760405163e602df0560e01b81525f600482015260240161039a565b6001600160a01b03831661066857604051634a1406b160e11b81525f600482015260240161039a565b6001600160a01b038085165f908152600160209081526040808320938716835292905220829055801561050157826001600160a01b0316846001600160a01b03167f8c5be1e5ebec7d5bd14f71427d1e84f3dd0314c0f7b2291e5b200ac8c7c3b925846040516106da91815260200190565b60405180910390a350505050565b6001600160a01b038316610712578060025f8282546107079190610949565b909155506107829050565b6001600160a01b0383165f90815260208190526040902054818110156107645760405163391434e360e21b81526001600160a01b0385166004820152602481018290526044810183905260640161039a565b6001600160a01b0384165f9081526020819052604090209082900390555b6001600160a01b03821661079e576002805482900390556107bc565b6001600160a01b0382165f9081526020819052604090208054820190555b816001600160a01b0316836001600160a01b03167fddf252ad1be2c89b69c2b068fc378daa952ba7f163c4a11628f55a4df523b3ef8360405161080191815260200190565b60405180910390a3505050565b602081525f82518060208401528060208501604085015e5f604082850101526040601f19601f83011684010191505092915050565b80356001600160a01b0381168114610859575f5ffd5b919050565b5f5f6040838503121561086f575f5ffd5b61087883610843565b946020939093013593505050565b5f5f5f60608486031215610898575f5ffd5b6108a184610843565b92506108af60208501610843565b929592945050506040919091013590565b5f602082840312156108d0575f5ffd5b6108d982610843565b9392505050565b5f5f604083850312156108f1575f5ffd5b6108fa83610843565b915061090860208401610843565b90509250929050565b600181811c9082168061092557607f821691505b60208210810361094357634e487b7160e01b5f52602260045260245ffd5b50919050565b8082018082111561030657634e487b7160e01b5f52601160045260245ffdfea264697066735822122002a09dd2df3d085ef2a2dec2f7540c428f3313c984ed05249a1cb65b6270ed4564736f6c634300081c0033",
  "linkReferences": {},
  "deployedLinkReferences": {},
  "immutableReferences": {},
  "inputSourceName": "project/contracts/CTToken.sol",
  "buildInfoId": "solc-0_8_28-3efef70f06a3fbf5e78056d67d2c3ed7ca9175fc"
}