{
  "contractName": "CTDAO",
  "abi": [
    {
      "inputs": [
        {
          "internalType": "address payable",
          "name": "_cTTreasuryAddress",
          "type": "address"
        },
        {
          "internalType": "address[]",
          "name": "initialMembers",
          "type": "address[]"
        }
      ],
      "stateMutability": "nonpayable",
      "type": "constructor"
    },
    {
      "anonymous": false,
      "inputs": [
        {
          "indexed": false,
          "internalType": "uint256",
          "name": "proposalId",
          "type": "uint256"
        },
        {
          "indexed": false,
          "internalType": "string",
          "name": "description",
          "type": "string"
        }
      ],
      "name": "ProposalCreated",
      "type": "event"
    },
    {
      "anonymous": false,
      "inputs": [
        {
          "indexed": false,
          "internalType": "uint256",
          "name": "proposalId",
          "type": "uint256"
        }
      ],
      "name": "ProposalExecuted",
      "type": "event"
    },
    {
      "anonymous": false,
      "inputs": [
        {
          "indexed": false,
          "internalType": "uint256",
          "name": "proposalId",
          "type": "uint256"
        },
        {
          "indexed": false,
          "internalType": "address",
          "name": "voter",
          "type": "address"
        }
      ],
      "name": "Voted",
      "type": "event"
    },
    {
      "inputs": [],
      "name": "cTTreasuryAddress",
      "outputs": [
        {
          "internalType": "address payable",
          "name": "",
          "type": "address"
        }
      ],
      "stateMutability": "view",
      "type": "function",
      "constant": true
    },
    {
      "inputs": [
        {
          "internalType": "address",
          "name": "",
          "type": "address"
        }
      ],
      "name": "members",
      "outputs": [
        {
          "internalType": "bool",
          "name": "",
          "type": "bool"
        }
      ],
      "stateMutability": "view",
      "type": "function",
      "constant": true
    },
    {
      "inputs": [],
      "name": "proposalCount",
      "outputs": [
        {
          "internalType": "uint256",
          "name": "",
          "type": "uint256"
        }
      ],
      "stateMutability": "view",
      "type": "function",
      "constant": true
    },
    {
      "inputs": [
        {
          "internalType": "uint256",
          "name": "",
          "type": "uint256"
        }
      ],
      "name": "proposals",
      "outputs": [
        {
          "internalType": "string",
          "name": "description",
          "type": "string"
        },
        {
          "internalType": "uint256",
          "name": "budget",
          "type": "uint256"
        },
        {
          "internalType": "address",
          "name": "beneficiary",
          "type": "address"
        },
        {
          "internalType": "uint256",
          "name": "votes",
          "type": "uint256"
        },
        {
          "internalType": "bool",
          "name": "executed",
          "type": "bool"
        }
      ],
      "stateMutability": "view",
      "type": "function",
      "constant": true
    },
    {
      "inputs": [
        {
          "internalType": "string",
          "name": "_description",
          "type": "string"
        },
        {
          "internalType": "uint256",
          "name": "budget",
          "type": "uint256"
        },
        {
          "internalType": "address",
          "name": "beneficiary",
          "type": "address"
        }
      ],
      "name": "createProposal",
      "outputs": [],
      "stateMutability": "nonpayable",
      "type": "function"
    },
    {
      "inputs": [
        {
          "internalType": "uint256",
          "name": "_proposalId",
          "type": "uint256"
        }
      ],
      "name": "vote",
      "outputs": [],
      "stateMutability": "nonpayable",
      "type": "function"
    },
    {
      "inputs": [
        {
          "internalType": "uint256",
          "name": "_proposalId",
          "type": "uint256"
        }
      ],
      "name": "executeProposal",
      "outputs": [],
      "stateMutability": "nonpayable",
      "type": "function"
    }
  ],
  "bytecode": "0x608060405234801562000010575f80fd5b50604051620022573803806200225783398181016040528101906200003691906200036e565b8160045f6101000a81548173ffffffffffffffffffffffffffffffffffffffff021916908373ffffffffffffffffffffffffffffffffffffffff1602179055505f5b815181101562000145576001805f8484815181106200009c576200009b620003d2565b5b602002602001015173ffffffffffffffffffffffffffffffffffffffff1673ffffffffffffffffffffffffffffffffffffffff1681526020019081526020015f205f6101000a81548160ff02191690831515021790555060025f81819054906101000a900461ffff1680929190620001149062000439565b91906101000a81548161ffff021916908361ffff1602179055505080806200013c9062000470565b91505062000078565b505050620004bc565b5f604051905090565b5f80fd5b5f80fd5b5f73ffffffffffffffffffffffffffffffffffffffff82169050919050565b5f6200018a826200015f565b9050919050565b6200019c816200017e565b8114620001a7575f80fd5b50565b5f81519050620001ba8162000191565b92915050565b5f80fd5b5f601f19601f8301169050919050565b7f4e487b71000000000000000000000000000000000000000000000000000000005f52604160045260245ffd5b6200020c82620001c4565b810181811067ffffffffffffffff821117156200022e576200022d620001d4565b5b80604052505050565b5f620002426200014e565b905062000250828262000201565b919050565b5f67ffffffffffffffff821115620002725762000271620001d4565b5b602082029050602081019050919050565b5f80fd5b5f62000293826200015f565b9050919050565b620002a58162000287565b8114620002b0575f80fd5b50565b5f81519050620002c3816200029a565b92915050565b5f620002df620002d98462000255565b62000237565b9050808382526020820190506020840283018581111562000305576200030462000283565b5b835b818110156200033257806200031d8882620002b3565b84526020840193505060208101905062000307565b5050509392505050565b5f82601f830112620003535762000352620001c0565b5b815162000365848260208601620002c9565b91505092915050565b5f806040838503121562000387576200038662000157565b5b5f6200039685828601620001aa565b925050602083015167ffffffffffffffff811115620003ba57620003b96200015b565b5b620003c8858286016200033c565b9150509250929050565b7f4e487b71000000000000000000000000000000000000000000000000000000005f52603260045260245ffd5b7f4e487b71000000000000000000000000000000000000000000000000000000005f52601160045260245ffd5b5f61ffff82169050919050565b5f62000445826200042c565b915061ffff82036200045c576200045b620003ff565b5b600182019050919050565b5f819050919050565b5f6200047c8262000467565b91507fffffffffffffffffffffffffffffffffffffffffffffffffffffffffffffffff8203620004b157620004b0620003ff565b5b600182019050919050565b611d8d80620004ca5f395ff3fe608060405234801562000010575f80fd5b506004361062000086575f3560e01c80630d61b51911620000615780630d61b519146200011a5780636ac1e01f146200013a5780638a762f32146200015a578063da35c664146200017c5762000086565b80630121b93f146200008a578063013cf08b14620000aa57806308ae4b0c14620000e4575b5f80fd5b620000a86004803603810190620000a2919062000976565b6200019e565b005b620000c86004803603810190620000c2919062000976565b620002f5565b604051620000db95949392919062000aaa565b60405180910390f35b620001026004803603810190620000fc919062000b3b565b620003df565b60405162000111919062000b6b565b60405180910390f35b62000138600480360381019062000132919062000976565b620003fc565b005b62000158600480360381019062000152919062000cce565b6200072a565b005b62000164620008f4565b60405162000173919062000d6a565b60405180910390f35b6200018662000919565b60405162000195919062000d85565b60405180910390f35b60015f3373ffffffffffffffffffffffffffffffffffffffff1673ffffffffffffffffffffffffffffffffffffffff1681526020019081526020015f205f9054906101000a900460ff166200022a576040517f08c379a0000000000000000000000000000000000000000000000000000000008152600401620002219062000dee565b60405180910390fd5b5f808281526020019081526020015f206004015f9054906101000a900460ff16156200028d576040517f08c379a0000000000000000000000000000000000000000000000000000000008152600401620002849062000e5c565b60405180910390fd5b5f808281526020019081526020015f206003015f815480929190620002b29062000ea9565b91905055507f030b0f8dcd86a031eddb071f91882edeac8173663ba775713b677b42b51be44b8133604051620002ea92919062000ef5565b60405180910390a150565b5f602052805f5260405f205f91509050805f018054620003159062000f4d565b80601f0160208091040260200160405190810160405280929190818152602001828054620003439062000f4d565b8015620003925780601f10620003685761010080835404028352916020019162000392565b820191905f5260205f20905b8154815290600101906020018083116200037457829003601f168201915b505050505090806001015490806002015f9054906101000a900473ffffffffffffffffffffffffffffffffffffffff1690806003015490806004015f9054906101000a900460ff16905085565b6001602052805f5260405f205f915054906101000a900460ff1681565b60015f3373ffffffffffffffffffffffffffffffffffffffff1673ffffffffffffffffffffffffffffffffffffffff1681526020019081526020015f205f9054906101000a900460ff1662000488576040517f08c379a00000000000000000000000000000000000000000000000000000000081526004016200047f9062000dee565b60405180910390fd5b60025f9054906101000a900461ffff1661ffff165f808381526020019081526020015f20600301541015620004f4576040517f08c379a0000000000000000000000000000000000000000000000000000000008152600401620004eb9062000fcf565b60405180910390fd5b5f808281526020019081526020015f206004015f9054906101000a900460ff161562000557576040517f08c379a00000000000000000000000000000000000000000000000000000000081526004016200054e9062000e5c565b60405180910390fd5b5f60045f9054906101000a900473ffffffffffffffffffffffffffffffffffffffff1690508073ffffffffffffffffffffffffffffffffffffffff166312065fe06040518163ffffffff1660e01b8152600401602060405180830381865afa158015620005c6573d5f803e3d5ffd5b505050506040513d601f19601f82011682018060405250810190620005ec919062001005565b5f808481526020019081526020015f20600101541162000643576040517f08c379a00000000000000000000000000000000000000000000000000000000081526004016200063a9062001083565b60405180910390fd5b5f805f8481526020019081526020015f205f015f808581526020019081526020015f206002015f9054906101000a900473ffffffffffffffffffffffffffffffffffffffff1660405162000697906200091f565b620006a492919062001142565b604051809103905ff080158015620006be573d5f803e3d5ffd5b50905060015f808581526020019081526020015f206004015f6101000a81548160ff0219169083151502179055507f712ae1383f79ac853f8d882153778e0260ef8f03b504e2866e0593e04d2b291f836040516200071d919062000d85565b60405180910390a1505050565b60015f3373ffffffffffffffffffffffffffffffffffffffff1673ffffffffffffffffffffffffffffffffffffffff1681526020019081526020015f205f9054906101000a900460ff16620007b6576040517f08c379a0000000000000000000000000000000000000000000000000000000008152600401620007ad9062000dee565b60405180910390fd5b6040518060a001604052808481526020018381526020018273ffffffffffffffffffffffffffffffffffffffff1681526020015f81526020015f15158152505f8060035481526020019081526020015f205f820151815f0190816200081c919062001325565b50602082015181600101556040820151816002015f6101000a81548173ffffffffffffffffffffffffffffffffffffffff021916908373ffffffffffffffffffffffffffffffffffffffff160217905550606082015181600301556080820151816004015f6101000a81548160ff0219169083151502179055509050507f9c770c289ab5bf7e57cb1d23c8ceae993aea46eb64847072fd3d78ca60d3e43260035484604051620008ce92919062001409565b60405180910390a160035f815480929190620008ea9062000ea9565b9190505550505050565b60045f9054906101000a900473ffffffffffffffffffffffffffffffffffffffff1681565b60035481565b61091c806200143c83390190565b5f604051905090565b5f80fd5b5f80fd5b5f819050919050565b62000952816200093e565b81146200095d575f80fd5b50565b5f81359050620009708162000947565b92915050565b5f602082840312156200098e576200098d62000936565b5b5f6200099d8482850162000960565b91505092915050565b5f81519050919050565b5f82825260208201905092915050565b5f5b83811015620009df578082015181840152602081019050620009c2565b5f8484015250505050565b5f601f19601f8301169050919050565b5f62000a0682620009a6565b62000a128185620009b0565b935062000a24818560208601620009c0565b62000a2f81620009ea565b840191505092915050565b62000a45816200093e565b82525050565b5f73ffffffffffffffffffffffffffffffffffffffff82169050919050565b5f62000a768262000a4b565b9050919050565b62000a888162000a6a565b82525050565b5f8115159050919050565b62000aa48162000a8e565b82525050565b5f60a0820190508181035f83015262000ac48188620009fa565b905062000ad5602083018762000a3a565b62000ae4604083018662000a7d565b62000af3606083018562000a3a565b62000b02608083018462000a99565b9695505050505050565b62000b178162000a6a565b811462000b22575f80fd5b50565b5f8135905062000b358162000b0c565b92915050565b5f6020828403121562000b535762000b5262000936565b5b5f62000b628482850162000b25565b91505092915050565b5f60208201905062000b805f83018462000a99565b92915050565b5f80fd5b5f80fd5b7f4e487b71000000000000000000000000000000000000000000000000000000005f52604160045260245ffd5b62000bc682620009ea565b810181811067ffffffffffffffff8211171562000be85762000be762000b8e565b5b80604052505050565b5f62000bfc6200092d565b905062000c0a828262000bbb565b919050565b5f67ffffffffffffffff82111562000c2c5762000c2b62000b8e565b5b62000c3782620009ea565b9050602081019050919050565b828183375f83830152505050565b5f62000c6862000c628462000c0f565b62000bf1565b90508281526020810184848401111562000c875762000c8662000b8a565b5b62000c9484828562000c44565b509392505050565b5f82601f83011262000cb35762000cb262000b86565b5b813562000cc584826020860162000c52565b91505092915050565b5f805f6060848603121562000ce85762000ce762000936565b5b5f84013567ffffffffffffffff81111562000d085762000d076200093a565b5b62000d168682870162000c9c565b935050602062000d298682870162000960565b925050604062000d3c8682870162000b25565b9150509250925092565b5f62000d528262000a4b565b9050919050565b62000d648162000d46565b82525050565b5f60208201905062000d7f5f83018462000d59565b92915050565b5f60208201905062000d9a5f83018462000a3a565b92915050565b7f4e6f7420612044414f206d656d626572000000000000000000000000000000005f82015250565b5f62000dd6601083620009b0565b915062000de38262000da0565b602082019050919050565b5f6020820190508181035f83015262000e078162000dc8565b9050919050565b7f416c7265616479206578656375746564000000000000000000000000000000005f82015250565b5f62000e44601083620009b0565b915062000e518262000e0e565b602082019050919050565b5f6020820190508181035f83015262000e758162000e36565b9050919050565b7f4e487b71000000000000000000000000000000000000000000000000000000005f52601160045260245ffd5b5f62000eb5826200093e565b91507fffffffffffffffffffffffffffffffffffffffffffffffffffffffffffffffff820362000eea5762000ee962000e7c565b5b600182019050919050565b5f60408201905062000f0a5f83018562000a3a565b62000f19602083018462000a7d565b9392505050565b7f4e487b71000000000000000000000000000000000000000000000000000000005f52602260045260245ffd5b5f600282049050600182168062000f6557607f821691505b60208210810362000f7b5762000f7a62000f20565b5b50919050565b7f4e6f7420656e6f75676820766f746573000000000000000000000000000000005f82015250565b5f62000fb7601083620009b0565b915062000fc48262000f81565b602082019050919050565b5f6020820190508181035f83015262000fe88162000fa9565b9050919050565b5f8151905062000fff8162000947565b92915050565b5f602082840312156200101d576200101c62000936565b5b5f6200102c8482850162000fef565b91505092915050565b7f6e6f7420656e6f7567682062756467657420666f722070726f6a6563740000005f82015250565b5f6200106b601d83620009b0565b9150620010788262001035565b602082019050919050565b5f6020820190508181035f8301526200109c816200105d565b9050919050565b5f819050815f5260205f209050919050565b5f8154620010c38162000f4d565b620010cf8186620009b0565b9450600182165f8114620010ec5760018114620011035762001139565b60ff19831686528115156020028601935062001139565b6200110e85620010a3565b5f5b83811015620011315781548189015260018201915060208101905062001110565b808801955050505b50505092915050565b5f6040820190508181035f8301526200115c8185620010b5565b90506200116d602083018462000a7d565b9392505050565b5f6020601f8301049050919050565b5f82821b905092915050565b5f60088302620011c07fffffffffffffffffffffffffffffffffffffffffffffffffffffffffffffffff8262001183565b620011cc868362001183565b95508019841693508086168417925050509392505050565b5f819050919050565b5f6200120d6200120762001201846200093e565b620011e4565b6200093e565b9050919050565b5f819050919050565b6200122883620011ed565b62001240620012378262001214565b8484546200118f565b825550505050565b5f90565b6200125662001248565b620012638184846200121d565b505050565b5b818110156200128a576200127e5f826200124c565b60018101905062001269565b5050565b601f821115620012d957620012a381620010a3565b620012ae8462001174565b81016020851015620012be578190505b620012d6620012cd8562001174565b83018262001268565b50505b505050565b5f82821c905092915050565b5f620012fb5f1984600802620012de565b1980831691505092915050565b5f620013158383620012ea565b9150826002028217905092915050565b6200133082620009a6565b67ffffffffffffffff8111156200134c576200134b62000b8e565b5b62001358825462000f4d565b620013658282856200128e565b5f60209050601f8311600181146200139b575f841562001386578287015190505b62001392858262001308565b86555062001401565b601f198416620013ab86620010a3565b5f5b82811015620013d457848901518255600182019150602085019450602081019050620013ad565b86831015620013f45784890151620013f0601f891682620012ea565b8355505b6001600288020188555050505b505050505050565b5f6040820190506200141e5f83018562000a3a565b8181036020830152620014328184620009fa565b9050939250505056fe608060405234801562000010575f80fd5b506040516200091c3803806200091c833981810160405281019062000036919062000275565b815f908162000046919062000510565b508060015f6101000a81548173ffffffffffffffffffffffffffffffffffffffff021916908373ffffffffffffffffffffffffffffffffffffffff1602179055505050620005f4565b5f604051905090565b5f80fd5b5f80fd5b5f80fd5b5f80fd5b5f601f19601f8301169050919050565b7f4e487b71000000000000000000000000000000000000000000000000000000005f52604160045260245ffd5b620000f082620000a8565b810181811067ffffffffffffffff82111715620001125762000111620000b8565b5b80604052505050565b5f620001266200008f565b9050620001348282620000e5565b919050565b5f67ffffffffffffffff821115620001565762000155620000b8565b5b6200016182620000a8565b9050602081019050919050565b5f5b838110156200018d57808201518184015260208101905062000170565b5f8484015250505050565b5f620001ae620001a88462000139565b6200011b565b905082815260208101848484011115620001cd57620001cc620000a4565b5b620001da8482856200016e565b509392505050565b5f82601f830112620001f957620001f8620000a0565b5b81516200020b84826020860162000198565b91505092915050565b5f73ffffffffffffffffffffffffffffffffffffffff82169050919050565b5f6200023f8262000214565b9050919050565b620002518162000233565b81146200025c575f80fd5b50565b5f815190506200026f8162000246565b92915050565b5f80604083850312156200028e576200028d62000098565b5b5f83015167ffffffffffffffff811115620002ae57620002ad6200009c565b5b620002bc85828601620001e2565b9250506020620002cf858286016200025f565b9150509250929050565b5f81519050919050565b7f4e487b71000000000000000000000000000000000000000000000000000000005f52602260045260245ffd5b5f60028204905060018216806200032857607f821691505b6020821081036200033e576200033d620002e3565b5b50919050565b5f819050815f5260205f209050919050565b5f6020601f8301049050919050565b5f82821b905092915050565b5f60088302620003a27fffffffffffffffffffffffffffffffffffffffffffffffffffffffffffffffff8262000365565b620003ae868362000365565b95508019841693508086168417925050509392505050565b5f819050919050565b5f819050919050565b5f620003f8620003f2620003ec84620003c6565b620003cf565b620003c6565b9050919050565b5f819050919050565b6200041383620003d8565b6200042b6200042282620003ff565b84845462000371565b825550505050565b5f90565b6200044162000433565b6200044e81848462000408565b505050565b5b818110156200047557620004695f8262000437565b60018101905062000454565b5050565b601f821115620004c4576200048e8162000344565b620004998462000356565b81016020851015620004a9578190505b620004c1620004b88562000356565b83018262000453565b50505b505050565b5f82821c905092915050565b5f620004e65f1984600802620004c9565b1980831691505092915050565b5f620005008383620004d5565b9150826002028217905092915050565b6200051b82620002d9565b67ffffffffffffffff811115620005375762000536620000b8565b5b62000543825462000310565b6200055082828562000479565b5f60209050601f83116001811462000586575f841562000571578287015190505b6200057d8582620004f3565b865550620005ec565b601f198416620005968662000344565b5f5b82811015620005bf5784890151825560018201915060208501945060208101905062000598565b86831015620005df5784890151620005db601f891682620004d5565b8355505b6001600288020188555050505b505050505050565b61031a80620006025f395ff3fe608060405234801561000f575f80fd5b506004361061003f575f3560e01c806312065fe01461004357806338af3eed146100615780639a33e3001461007f575b5f80fd5b61004b61009d565b604051610058919061016c565b60405180910390f35b6100696100a4565b60405161007691906101c4565b60405180910390f35b6100876100c9565b6040516100949190610267565b60405180910390f35b5f47905090565b60015f9054906101000a900473ffffffffffffffffffffffffffffffffffffffff1681565b5f80546100d5906102b4565b80601f0160208091040260200160405190810160405280929190818152602001828054610101906102b4565b801561014c5780601f106101235761010080835404028352916020019161014c565b820191905f5260205f20905b81548152906001019060200180831161012f57829003601f168201915b505050505081565b5f819050919050565b61016681610154565b82525050565b5f60208201905061017f5f83018461015d565b92915050565b5f73ffffffffffffffffffffffffffffffffffffffff82169050919050565b5f6101ae82610185565b9050919050565b6101be816101a4565b82525050565b5f6020820190506101d75f8301846101b5565b92915050565b5f81519050919050565b5f82825260208201905092915050565b5f5b838110156102145780820151818401526020810190506101f9565b5f8484015250505050565b5f601f19601f8301169050919050565b5f610239826101dd565b61024381856101e7565b93506102538185602086016101f7565b61025c8161021f565b840191505092915050565b5f6020820190508181035f83015261027f818461022f565b905092915050565b7f4e487b71000000000000000000000000000000000000000000000000000000005f52602260045260245ffd5b5f60028204905060018216806102cb57607f821691505b6020821081036102de576102dd610287565b5b5091905056fea2646970667358221220e3f3f7ce85fdf0b80b691217886097ec78d5818a5d767514c99775357b406ad964736f6c63430008150033a26469706673582212200effa982ab37836c07455e1438f220271a3522bf42845b11d4d4ee4b5996355764736f6c63430008150033",
  "immutableReferences": {},
  "source": "// SPDX-License-Identifier: MIT\npragma solidity ^0.8.20;\n\nimport \"./CTProject.sol\";\nimport \"./CTTreasury.sol\";\n\n/// @title ChariTree DAO\n/// @author ...\n/// @notice DAO contract for ChariTree\ncontract CTDAO {\n\n    // types\n    // proposal to vote\n    struct Proposal {\n        string description;\n        uint budget;\n        address beneficiary;\n        uint256 votes;\n        bool executed;\n    }\n\n    // properties\n    mapping(uint256 => Proposal) public proposals;\n    mapping(address => bool) public members;\n    uint16 memberNr; \n    uint256 public proposalCount;\n    address payable public cTTreasuryAddress;\n\n    // events\n    event ProposalCreated(uint256 proposalId, string description);\n    event Voted(uint256 proposalId, address voter);\n    event ProposalExecuted(uint256 proposalId);\n\n    // modifiers\n    modifier onlyMember() {\n        require(members[msg.sender], \"Not a DAO member\");\n        _;\n    }\n\n    // constructor\n    constructor(\n        address payable _cTTreasuryAddress,\n        address[] memory initialMembers\n        ) {\n        cTTreasuryAddress = _cTTreasuryAddress;\n        for (uint256 i = 0; i < initialMembers.length; i++) {\n            members[initialMembers[i]] = true;\n            memberNr++;\n        }\n    }\n\n    /// @notice create a new proposal\n    function createProposal(string memory _description, uint budget, address beneficiary) external onlyMember {\n        proposals[proposalCount] = Proposal(_description,budget,beneficiary, 0, false);\n        emit ProposalCreated(proposalCount, _description);\n        proposalCount++;\n    }\n\n\n    /// @notice vote for a proposal\n    function vote(uint256 _proposalId) external onlyMember {\n        require(!proposals[_proposalId].executed, \"Already executed\");\n        proposals[_proposalId].votes++;\n        emit Voted(_proposalId, msg.sender);\n    }\n\n    /// @notice executing a proposal\n    function executeProposal(uint256 _proposalId) external onlyMember {\n        require(proposals[_proposalId].votes >= memberNr, \"Not enough votes\");\n        require(!proposals[_proposalId].executed, \"Already executed\");\n\n        // logic for executing a proposal\n        CTTreasury treasury = CTTreasury(cTTreasuryAddress);\n        require ((proposals[_proposalId].budget > treasury.getBalance()), \"not enough budget for project\");\n        CTProject project = new CTProject(\n            proposals[_proposalId].description,\n            proposals[_proposalId].beneficiary\n            );\n\n        proposals[_proposalId].executed = true;\n        emit ProposalExecuted(_proposalId);\n    }\n\n}",
  "sourcePath": "/home/dsz/git/dotcharitree/contracts/CTDAO.sol",
  "compiler": {
    "name": "solc",
    "version": "0.8.21+commit.d9974bed.Emscripten.clang"
  },
  "schemaVersion": "3.4.16",
  "updatedAt": "2025-11-10T05:34:56.354Z",
  "networkType": "ethereum",
  "devdoc": {
    "author": "...",
    "kind": "dev",
    "methods": {},
    "title": "ChariTree DAO",
    "version": 1
  },
  "userdoc": {
    "kind": "user",
    "methods": {
      "createProposal(string,uint256,address)": {
        "notice": "create a new proposal"
      },
      "executeProposal(uint256)": {
        "notice": "executing a proposal"
      },
      "vote(uint256)": {
        "notice": "vote for a proposal"
      }
    },
    "notice": "DAO contract for ChariTree",
    "version": 1
  }
}