{
  "contractName": "CTDAO",
  "abi": [
    {
      "inputs": [
        {
          "internalType": "address payable",
          "name": "_cTTreasuryAddress",
          "type": "address"
        },
        {
          "internalType": "address[]",
          "name": "initialMembers",
          "type": "address[]"
        }
      ],
      "stateMutability": "nonpayable",
      "type": "constructor"
    },
    {
      "anonymous": false,
      "inputs": [
        {
          "indexed": false,
          "internalType": "uint256",
          "name": "proposalId",
          "type": "uint256"
        },
        {
          "indexed": false,
          "internalType": "string",
          "name": "description",
          "type": "string"
        }
      ],
      "name": "ProposalCreated",
      "type": "event"
    },
    {
      "anonymous": false,
      "inputs": [
        {
          "indexed": false,
          "internalType": "uint256",
          "name": "proposalId",
          "type": "uint256"
        }
      ],
      "name": "ProposalExecuted",
      "type": "event"
    },
    {
      "anonymous": false,
      "inputs": [
        {
          "indexed": false,
          "internalType": "uint256",
          "name": "proposalId",
          "type": "uint256"
        },
        {
          "indexed": false,
          "internalType": "address",
          "name": "voter",
          "type": "address"
        }
      ],
      "name": "Voted",
      "type": "event"
    },
    {
      "inputs": [],
      "name": "cTTreasuryAddress",
      "outputs": [
        {
          "internalType": "address payable",
          "name": "",
          "type": "address"
        }
      ],
      "stateMutability": "view",
      "type": "function",
      "constant": true
    },
    {
      "inputs": [
        {
          "internalType": "address",
          "name": "",
          "type": "address"
        }
      ],
      "name": "members",
      "outputs": [
        {
          "internalType": "bool",
          "name": "",
          "type": "bool"
        }
      ],
      "stateMutability": "view",
      "type": "function",
      "constant": true
    },
    {
      "inputs": [],
      "name": "proposalCount",
      "outputs": [
        {
          "internalType": "uint256",
          "name": "",
          "type": "uint256"
        }
      ],
      "stateMutability": "view",
      "type": "function",
      "constant": true
    },
    {
      "inputs": [
        {
          "internalType": "uint256",
          "name": "",
          "type": "uint256"
        }
      ],
      "name": "proposals",
      "outputs": [
        {
          "internalType": "string",
          "name": "description",
          "type": "string"
        },
        {
          "internalType": "uint256",
          "name": "budget",
          "type": "uint256"
        },
        {
          "internalType": "address payable",
          "name": "beneficiary",
          "type": "address"
        },
        {
          "internalType": "address",
          "name": "approver",
          "type": "address"
        },
        {
          "internalType": "uint256",
          "name": "votes",
          "type": "uint256"
        },
        {
          "internalType": "bool",
          "name": "executed",
          "type": "bool"
        }
      ],
      "stateMutability": "view",
      "type": "function",
      "constant": true
    },
    {
      "inputs": [
        {
          "internalType": "string",
          "name": "_description",
          "type": "string"
        },
        {
          "internalType": "uint256",
          "name": "budget",
          "type": "uint256"
        },
        {
          "internalType": "address payable",
          "name": "beneficiary",
          "type": "address"
        },
        {
          "internalType": "address",
          "name": "approver",
          "type": "address"
        }
      ],
      "name": "createProposal",
      "outputs": [],
      "stateMutability": "nonpayable",
      "type": "function"
    },
    {
      "inputs": [
        {
          "internalType": "uint256",
          "name": "_proposalId",
          "type": "uint256"
        }
      ],
      "name": "vote",
      "outputs": [],
      "stateMutability": "nonpayable",
      "type": "function"
    },
    {
      "inputs": [
        {
          "internalType": "uint256",
          "name": "_proposalId",
          "type": "uint256"
        }
      ],
      "name": "executeProposal",
      "outputs": [],
      "stateMutability": "nonpayable",
      "type": "function"
    }
  ],
  "bytecode": "0x608060405234801562000010575f80fd5b50604051620029bb380380620029bb83398181016040528101906200003691906200036e565b8160045f6101000a81548173ffffffffffffffffffffffffffffffffffffffff021916908373ffffffffffffffffffffffffffffffffffffffff1602179055505f5b815181101562000145576001805f8484815181106200009c576200009b620003d2565b5b602002602001015173ffffffffffffffffffffffffffffffffffffffff1673ffffffffffffffffffffffffffffffffffffffff1681526020019081526020015f205f6101000a81548160ff02191690831515021790555060025f81819054906101000a900461ffff1680929190620001149062000439565b91906101000a81548161ffff021916908361ffff1602179055505080806200013c9062000470565b91505062000078565b505050620004bc565b5f604051905090565b5f80fd5b5f80fd5b5f73ffffffffffffffffffffffffffffffffffffffff82169050919050565b5f6200018a826200015f565b9050919050565b6200019c816200017e565b8114620001a7575f80fd5b50565b5f81519050620001ba8162000191565b92915050565b5f80fd5b5f601f19601f8301169050919050565b7f4e487b71000000000000000000000000000000000000000000000000000000005f52604160045260245ffd5b6200020c82620001c4565b810181811067ffffffffffffffff821117156200022e576200022d620001d4565b5b80604052505050565b5f620002426200014e565b905062000250828262000201565b919050565b5f67ffffffffffffffff821115620002725762000271620001d4565b5b602082029050602081019050919050565b5f80fd5b5f62000293826200015f565b9050919050565b620002a58162000287565b8114620002b0575f80fd5b50565b5f81519050620002c3816200029a565b92915050565b5f620002df620002d98462000255565b62000237565b9050808382526020820190506020840283018581111562000305576200030462000283565b5b835b818110156200033257806200031d8882620002b3565b84526020840193505060208101905062000307565b5050509392505050565b5f82601f830112620003535762000352620001c0565b5b815162000365848260208601620002c9565b91505092915050565b5f806040838503121562000387576200038662000157565b5b5f6200039685828601620001aa565b925050602083015167ffffffffffffffff811115620003ba57620003b96200015b565b5b620003c8858286016200033c565b9150509250929050565b7f4e487b71000000000000000000000000000000000000000000000000000000005f52603260045260245ffd5b7f4e487b71000000000000000000000000000000000000000000000000000000005f52601160045260245ffd5b5f61ffff82169050919050565b5f62000445826200042c565b915061ffff82036200045c576200045b620003ff565b5b600182019050919050565b5f819050919050565b5f6200047c8262000467565b91507fffffffffffffffffffffffffffffffffffffffffffffffffffffffffffffffff8203620004b157620004b0620003ff565b5b600182019050919050565b6124f180620004ca5f395ff3fe608060405234801562000010575f80fd5b506004361062000086575f3560e01c80630d61b51911620000615780630d61b519146200011b578063622728a1146200013b5780638a762f32146200015b578063da35c664146200017d5762000086565b80630121b93f146200008a578063013cf08b14620000aa57806308ae4b0c14620000e5575b5f80fd5b620000a86004803603810190620000a2919062000aeb565b6200019f565b005b620000c86004803603810190620000c2919062000aeb565b620002f6565b604051620000dc9695949392919062000c43565b60405180910390f35b620001036004803603810190620000fd919062000ce4565b62000405565b60405162000112919062000d14565b60405180910390f35b62000139600480360381019062000133919062000aeb565b62000422565b005b62000159600480360381019062000153919062000ea6565b6200083c565b005b6200016562000a69565b60405162000174919062000f34565b60405180910390f35b6200018762000a8e565b60405162000196919062000f4f565b60405180910390f35b60015f3373ffffffffffffffffffffffffffffffffffffffff1673ffffffffffffffffffffffffffffffffffffffff1681526020019081526020015f205f9054906101000a900460ff166200022b576040517f08c379a0000000000000000000000000000000000000000000000000000000008152600401620002229062000fb8565b60405180910390fd5b5f808281526020019081526020015f206005015f9054906101000a900460ff16156200028e576040517f08c379a0000000000000000000000000000000000000000000000000000000008152600401620002859062001026565b60405180910390fd5b5f808281526020019081526020015f206004015f815480929190620002b39062001073565b91905055507f030b0f8dcd86a031eddb071f91882edeac8173663ba775713b677b42b51be44b8133604051620002eb929190620010bf565b60405180910390a150565b5f602052805f5260405f205f91509050805f018054620003169062001117565b80601f0160208091040260200160405190810160405280929190818152602001828054620003449062001117565b8015620003935780601f10620003695761010080835404028352916020019162000393565b820191905f5260205f20905b8154815290600101906020018083116200037557829003601f168201915b505050505090806001015490806002015f9054906101000a900473ffffffffffffffffffffffffffffffffffffffff1690806003015f9054906101000a900473ffffffffffffffffffffffffffffffffffffffff1690806004015490806005015f9054906101000a900460ff16905086565b6001602052805f5260405f205f915054906101000a900460ff1681565b60015f3373ffffffffffffffffffffffffffffffffffffffff1673ffffffffffffffffffffffffffffffffffffffff1681526020019081526020015f205f9054906101000a900460ff16620004ae576040517f08c379a0000000000000000000000000000000000000000000000000000000008152600401620004a59062000fb8565b60405180910390fd5b60016002805f9054906101000a900461ffff16620004cd919062001185565b620004d99190620011bc565b61ffff165f808381526020019081526020015f2060040154101562000535576040517f08c379a00000000000000000000000000000000000000000000000000000000081526004016200052c9062001246565b60405180910390fd5b5f808281526020019081526020015f206005015f9054906101000a900460ff161562000598576040517f08c379a00000000000000000000000000000000000000000000000000000000081526004016200058f9062001026565b60405180910390fd5b5f60045f9054906101000a900473ffffffffffffffffffffffffffffffffffffffff1690508073ffffffffffffffffffffffffffffffffffffffff166312065fe06040518163ffffffff1660e01b8152600401602060405180830381865afa15801562000607573d5f803e3d5ffd5b505050506040513d601f19601f820116820180604052508101906200062d91906200127c565b5f808481526020019081526020015f2060010154111562000685576040517f08c379a00000000000000000000000000000000000000000000000000000000081526004016200067c90620012fa565b60405180910390fd5b5f805f8481526020019081526020015f205f015f808581526020019081526020015f206002015f9054906101000a900473ffffffffffffffffffffffffffffffffffffffff165f808681526020019081526020015f206003015f9054906101000a900473ffffffffffffffffffffffffffffffffffffffff166040516200070c9062000a94565b6200071a93929190620013b9565b604051809103905ff08015801562000734573d5f803e3d5ffd5b5090505f805f8581526020019081526020015f20600101541115620007d3578173ffffffffffffffffffffffffffffffffffffffff1663eee923955f808681526020019081526020015f2060010154836040518363ffffffff1660e01b8152600401620007a3929190620013fb565b5f604051808303815f87803b158015620007bb575f80fd5b505af1158015620007ce573d5f803e3d5ffd5b505050505b60015f808581526020019081526020015f206005015f6101000a81548160ff0219169083151502179055507f712ae1383f79ac853f8d882153778e0260ef8f03b504e2866e0593e04d2b291f836040516200082f919062000f4f565b60405180910390a1505050565b60015f3373ffffffffffffffffffffffffffffffffffffffff1673ffffffffffffffffffffffffffffffffffffffff1681526020019081526020015f205f9054906101000a900460ff16620008c8576040517f08c379a0000000000000000000000000000000000000000000000000000000008152600401620008bf9062000fb8565b60405180910390fd5b6040518060c001604052808581526020018481526020018373ffffffffffffffffffffffffffffffffffffffff1681526020018273ffffffffffffffffffffffffffffffffffffffff1681526020015f81526020015f15158152505f8060035481526020019081526020015f205f820151815f0190816200094a9190620015d7565b50602082015181600101556040820151816002015f6101000a81548173ffffffffffffffffffffffffffffffffffffffff021916908373ffffffffffffffffffffffffffffffffffffffff1602179055506060820151816003015f6101000a81548173ffffffffffffffffffffffffffffffffffffffff021916908373ffffffffffffffffffffffffffffffffffffffff1602179055506080820151816004015560a0820151816005015f6101000a81548160ff0219169083151502179055509050507f9c770c289ab5bf7e57cb1d23c8ceae993aea46eb64847072fd3d78ca60d3e4326003548560405162000a42929190620016bb565b60405180910390a160035f81548092919062000a5e9062001073565b919050555050505050565b60045f9054906101000a900473ffffffffffffffffffffffffffffffffffffffff1681565b60035481565b610dce80620016ee83390190565b5f604051905090565b5f80fd5b5f80fd5b5f819050919050565b62000ac78162000ab3565b811462000ad2575f80fd5b50565b5f8135905062000ae58162000abc565b92915050565b5f6020828403121562000b035762000b0262000aab565b5b5f62000b128482850162000ad5565b91505092915050565b5f81519050919050565b5f82825260208201905092915050565b5f5b8381101562000b5457808201518184015260208101905062000b37565b5f8484015250505050565b5f601f19601f8301169050919050565b5f62000b7b8262000b1b565b62000b87818562000b25565b935062000b9981856020860162000b35565b62000ba48162000b5f565b840191505092915050565b62000bba8162000ab3565b82525050565b5f73ffffffffffffffffffffffffffffffffffffffff82169050919050565b5f62000beb8262000bc0565b9050919050565b62000bfd8162000bdf565b82525050565b5f62000c0f8262000bc0565b9050919050565b62000c218162000c03565b82525050565b5f8115159050919050565b62000c3d8162000c27565b82525050565b5f60c0820190508181035f83015262000c5d818962000b6f565b905062000c6e602083018862000baf565b62000c7d604083018762000bf2565b62000c8c606083018662000c16565b62000c9b608083018562000baf565b62000caa60a083018462000c32565b979650505050505050565b62000cc08162000c03565b811462000ccb575f80fd5b50565b5f8135905062000cde8162000cb5565b92915050565b5f6020828403121562000cfc5762000cfb62000aab565b5b5f62000d0b8482850162000cce565b91505092915050565b5f60208201905062000d295f83018462000c32565b92915050565b5f80fd5b5f80fd5b7f4e487b71000000000000000000000000000000000000000000000000000000005f52604160045260245ffd5b62000d6f8262000b5f565b810181811067ffffffffffffffff8211171562000d915762000d9062000d37565b5b80604052505050565b5f62000da562000aa2565b905062000db3828262000d64565b919050565b5f67ffffffffffffffff82111562000dd55762000dd462000d37565b5b62000de08262000b5f565b9050602081019050919050565b828183375f83830152505050565b5f62000e1162000e0b8462000db8565b62000d9a565b90508281526020810184848401111562000e305762000e2f62000d33565b5b62000e3d84828562000ded565b509392505050565b5f82601f83011262000e5c5762000e5b62000d2f565b5b813562000e6e84826020860162000dfb565b91505092915050565b62000e828162000bdf565b811462000e8d575f80fd5b50565b5f8135905062000ea08162000e77565b92915050565b5f805f806080858703121562000ec15762000ec062000aab565b5b5f85013567ffffffffffffffff81111562000ee15762000ee062000aaf565b5b62000eef8782880162000e45565b945050602062000f028782880162000ad5565b935050604062000f158782880162000e90565b925050606062000f288782880162000cce565b91505092959194509250565b5f60208201905062000f495f83018462000bf2565b92915050565b5f60208201905062000f645f83018462000baf565b92915050565b7f4e6f7420612044414f206d656d626572000000000000000000000000000000005f82015250565b5f62000fa060108362000b25565b915062000fad8262000f6a565b602082019050919050565b5f6020820190508181035f83015262000fd18162000f92565b9050919050565b7f416c7265616479206578656375746564000000000000000000000000000000005f82015250565b5f6200100e60108362000b25565b91506200101b8262000fd8565b602082019050919050565b5f6020820190508181035f8301526200103f8162001000565b9050919050565b7f4e487b71000000000000000000000000000000000000000000000000000000005f52601160045260245ffd5b5f6200107f8262000ab3565b91507fffffffffffffffffffffffffffffffffffffffffffffffffffffffffffffffff8203620010b457620010b362001046565b5b600182019050919050565b5f604082019050620010d45f83018562000baf565b620010e3602083018462000c16565b9392505050565b7f4e487b71000000000000000000000000000000000000000000000000000000005f52602260045260245ffd5b5f60028204905060018216806200112f57607f821691505b602082108103620011455762001144620010ea565b5b50919050565b5f61ffff82169050919050565b7f4e487b71000000000000000000000000000000000000000000000000000000005f52601260045260245ffd5b5f62001191826200114b565b91506200119e836200114b565b925082620011b157620011b062001158565b5b828204905092915050565b5f620011c8826200114b565b9150620011d5836200114b565b9250828201905061ffff811115620011f257620011f162001046565b5b92915050565b7f4e6f7420656e6f75676820766f746573000000000000000000000000000000005f82015250565b5f6200122e60108362000b25565b91506200123b82620011f8565b602082019050919050565b5f6020820190508181035f8301526200125f8162001220565b9050919050565b5f81519050620012768162000abc565b92915050565b5f6020828403121562001294576200129362000aab565b5b5f620012a38482850162001266565b91505092915050565b7f6e6f7420656e6f7567682062756467657420666f722070726f6a6563740000005f82015250565b5f620012e2601d8362000b25565b9150620012ef82620012ac565b602082019050919050565b5f6020820190508181035f8301526200131381620012d4565b9050919050565b5f819050815f5260205f209050919050565b5f81546200133a8162001117565b62001346818662000b25565b9450600182165f81146200136357600181146200137a57620013b0565b60ff198316865281151560200286019350620013b0565b62001385856200131a565b5f5b83811015620013a85781548189015260018201915060208101905062001387565b808801955050505b50505092915050565b5f6060820190508181035f830152620013d381866200132c565b9050620013e4602083018562000bf2565b620013f3604083018462000c16565b949350505050565b5f604082019050620014105f83018562000baf565b6200141f602083018462000bf2565b9392505050565b5f6020601f8301049050919050565b5f82821b905092915050565b5f60088302620014727fffffffffffffffffffffffffffffffffffffffffffffffffffffffffffffffff8262001435565b6200147e868362001435565b95508019841693508086168417925050509392505050565b5f819050919050565b5f620014bf620014b9620014b38462000ab3565b62001496565b62000ab3565b9050919050565b5f819050919050565b620014da836200149f565b620014f2620014e982620014c6565b84845462001441565b825550505050565b5f90565b62001508620014fa565b62001515818484620014cf565b505050565b5b818110156200153c57620015305f82620014fe565b6001810190506200151b565b5050565b601f8211156200158b5762001555816200131a565b620015608462001426565b8101602085101562001570578190505b620015886200157f8562001426565b8301826200151a565b50505b505050565b5f82821c905092915050565b5f620015ad5f198460080262001590565b1980831691505092915050565b5f620015c783836200159c565b9150826002028217905092915050565b620015e28262000b1b565b67ffffffffffffffff811115620015fe57620015fd62000d37565b5b6200160a825462001117565b6200161782828562001540565b5f60209050601f8311600181146200164d575f841562001638578287015190505b620016448582620015ba565b865550620016b3565b601f1984166200165d866200131a565b5f5b8281101562001686578489015182556001820191506020850194506020810190506200165f565b86831015620016a65784890151620016a2601f8916826200159c565b8355505b6001600288020188555050505b505050505050565b5f604082019050620016d05f83018562000baf565b8181036020830152620016e4818462000b6f565b9050939250505056fe608060405234801562000010575f80fd5b5060405162000dce38038062000dce8339818101604052810190620000369190620002f8565b825f9081620000469190620005a7565b508160015f6101000a81548173ffffffffffffffffffffffffffffffffffffffff021916908373ffffffffffffffffffffffffffffffffffffffff1602179055508060025f6101000a81548173ffffffffffffffffffffffffffffffffffffffff021916908373ffffffffffffffffffffffffffffffffffffffff1602179055505050506200068b565b5f604051905090565b5f80fd5b5f80fd5b5f80fd5b5f80fd5b5f601f19601f8301169050919050565b7f4e487b71000000000000000000000000000000000000000000000000000000005f52604160045260245ffd5b6200013182620000e9565b810181811067ffffffffffffffff82111715620001535762000152620000f9565b5b80604052505050565b5f62000167620000d0565b905062000175828262000126565b919050565b5f67ffffffffffffffff821115620001975762000196620000f9565b5b620001a282620000e9565b9050602081019050919050565b5f5b83811015620001ce578082015181840152602081019050620001b1565b5f8484015250505050565b5f620001ef620001e9846200017a565b6200015c565b9050828152602081018484840111156200020e576200020d620000e5565b5b6200021b848285620001af565b509392505050565b5f82601f8301126200023a5762000239620000e1565b5b81516200024c848260208601620001d9565b91505092915050565b5f73ffffffffffffffffffffffffffffffffffffffff82169050919050565b5f620002808262000255565b9050919050565b620002928162000274565b81146200029d575f80fd5b50565b5f81519050620002b08162000287565b92915050565b5f620002c28262000255565b9050919050565b620002d481620002b6565b8114620002df575f80fd5b50565b5f81519050620002f281620002c9565b92915050565b5f805f60608486031215620003125762000311620000d9565b5b5f84015167ffffffffffffffff811115620003325762000331620000dd565b5b620003408682870162000223565b93505060206200035386828701620002a0565b92505060406200036686828701620002e2565b9150509250925092565b5f81519050919050565b7f4e487b71000000000000000000000000000000000000000000000000000000005f52602260045260245ffd5b5f6002820490506001821680620003bf57607f821691505b602082108103620003d557620003d46200037a565b5b50919050565b5f819050815f5260205f209050919050565b5f6020601f8301049050919050565b5f82821b905092915050565b5f60088302620004397fffffffffffffffffffffffffffffffffffffffffffffffffffffffffffffffff82620003fc565b620004458683620003fc565b95508019841693508086168417925050509392505050565b5f819050919050565b5f819050919050565b5f6200048f6200048962000483846200045d565b62000466565b6200045d565b9050919050565b5f819050919050565b620004aa836200046f565b620004c2620004b98262000496565b84845462000408565b825550505050565b5f90565b620004d8620004ca565b620004e58184846200049f565b505050565b5b818110156200050c57620005005f82620004ce565b600181019050620004eb565b5050565b601f8211156200055b576200052581620003db565b6200053084620003ed565b8101602085101562000540578190505b620005586200054f85620003ed565b830182620004ea565b50505b505050565b5f82821c905092915050565b5f6200057d5f198460080262000560565b1980831691505092915050565b5f6200059783836200056c565b9150826002028217905092915050565b620005b28262000370565b67ffffffffffffffff811115620005ce57620005cd620000f9565b5b620005da8254620003a7565b620005e782828562000510565b5f60209050601f8311600181146200061d575f841562000608578287015190505b6200061485826200058a565b86555062000683565b601f1984166200062d86620003db565b5f5b8281101562000656578489015182556001820191506020850194506020810190506200062f565b8683101562000676578489015162000672601f8916826200056c565b8355505b6001600288020188555050505b505050505050565b61073580620006995f395ff3fe608060405260043610610073575f3560e01c806319d40b081161004d57806319d40b08146100e857806338af3eed146101125780634e71d92d1461013c5780639a33e300146101525761007a565b806312065fe01461007e57806312424e3f146100a8578063141a8dd8146100be5761007a565b3661007a57005b5f80fd5b348015610089575f80fd5b5061009261017c565b60405161009f919061044b565b60405180910390f35b3480156100b3575f80fd5b506100bc610183565b005b3480156100c9575f80fd5b506100d26101f8565b6040516100df91906104a3565b60405180910390f35b3480156100f3575f80fd5b506100fc61021d565b60405161010991906104d6565b60405180910390f35b34801561011d575f80fd5b50610126610230565b604051610133919061050f565b60405180910390f35b348015610147575f80fd5b50610150610255565b005b34801561015d575f80fd5b506101666103a8565b60405161017391906105b2565b60405180910390f35b5f47905090565b60025f9054906101000a900473ffffffffffffffffffffffffffffffffffffffff1673ffffffffffffffffffffffffffffffffffffffff163373ffffffffffffffffffffffffffffffffffffffff16146101db575f80fd5b6001600260146101000a81548160ff021916908315150217905550565b60025f9054906101000a900473ffffffffffffffffffffffffffffffffffffffff1681565b600260149054906101000a900460ff1681565b60015f9054906101000a900473ffffffffffffffffffffffffffffffffffffffff1681565b60011515600260149054906101000a900460ff161515146102ab576040517f08c379a00000000000000000000000000000000000000000000000000000000081526004016102a29061061c565b60405180910390fd5b3373ffffffffffffffffffffffffffffffffffffffff1660015f9054906101000a900473ffffffffffffffffffffffffffffffffffffffff1673ffffffffffffffffffffffffffffffffffffffff161461033a576040517f08c379a000000000000000000000000000000000000000000000000000000000815260040161033190610684565b60405180910390fd5b60015f9054906101000a900473ffffffffffffffffffffffffffffffffffffffff1673ffffffffffffffffffffffffffffffffffffffff166108fc61037d61017c565b90811502906040515f60405180830381858888f193505050501580156103a5573d5f803e3d5ffd5b50565b5f80546103b4906106cf565b80601f01602080910402602001604051908101604052809291908181526020018280546103e0906106cf565b801561042b5780601f106104025761010080835404028352916020019161042b565b820191905f5260205f20905b81548152906001019060200180831161040e57829003601f168201915b505050505081565b5f819050919050565b61044581610433565b82525050565b5f60208201905061045e5f83018461043c565b92915050565b5f73ffffffffffffffffffffffffffffffffffffffff82169050919050565b5f61048d82610464565b9050919050565b61049d81610483565b82525050565b5f6020820190506104b65f830184610494565b92915050565b5f8115159050919050565b6104d0816104bc565b82525050565b5f6020820190506104e95f8301846104c7565b92915050565b5f6104f982610464565b9050919050565b610509816104ef565b82525050565b5f6020820190506105225f830184610500565b92915050565b5f81519050919050565b5f82825260208201905092915050565b5f5b8381101561055f578082015181840152602081019050610544565b5f8484015250505050565b5f601f19601f8301169050919050565b5f61058482610528565b61058e8185610532565b935061059e818560208601610542565b6105a78161056a565b840191505092915050565b5f6020820190508181035f8301526105ca818461057a565b905092915050565b7f636c61696d20776f726b73206f6e6c7920696620617070726f766564000000005f82015250565b5f610606601c83610532565b9150610611826105d2565b602082019050919050565b5f6020820190508181035f830152610633816105fa565b9050919050565b7f6f6e6c792062656e65666963696172792063616e20636c61696d0000000000005f82015250565b5f61066e601a83610532565b91506106798261063a565b602082019050919050565b5f6020820190508181035f83015261069b81610662565b9050919050565b7f4e487b71000000000000000000000000000000000000000000000000000000005f52602260045260245ffd5b5f60028204905060018216806106e657607f821691505b6020821081036106f9576106f86106a2565b5b5091905056fea26469706673582212205e02f7fd5bd6393278e27aff1215494c441c47a5728dd5a88ba77ab77a60d57b64736f6c63430008150033a2646970667358221220859eda95245985e1c4f917c2c28b74507fde3ee7aa646fb4e77b65769c719fe864736f6c63430008150033",
  "immutableReferences": {},
  "source": "// SPDX-License-Identifier: MIT\npragma solidity ^0.8.20;\n\nimport \"./CTProject.sol\";\nimport \"./CTTreasury.sol\";\n\n/// @title ChariTree DAO\n/// @author ...\n/// @notice DAO contract for ChariTree\ncontract CTDAO {\n\n    // types\n    // proposal to vote\n    struct Proposal {\n        string description;\n        uint budget;\n        address payable beneficiary;\n        address approver;\n        uint256 votes;\n        bool executed;\n    }\n\n    // properties\n    mapping(uint256 => Proposal) public proposals;\n    mapping(address => bool) public members;\n    uint16 memberNr; \n    uint256 public proposalCount;\n    address payable public cTTreasuryAddress;\n\n    // events\n    event ProposalCreated(uint256 proposalId, string description);\n    event Voted(uint256 proposalId, address voter);\n    event ProposalExecuted(uint256 proposalId);\n\n    // modifiers\n    modifier onlyMember() {\n        require(members[msg.sender], \"Not a DAO member\");\n        _;\n    }\n\n    // constructor\n    constructor(\n        address payable _cTTreasuryAddress,\n        address[] memory initialMembers\n        ) {\n        cTTreasuryAddress = _cTTreasuryAddress;\n        for (uint256 i = 0; i < initialMembers.length; i++) {\n            members[initialMembers[i]] = true;\n            memberNr++;\n        }\n    }\n\n    /// @notice create a new proposal\n    function createProposal(string memory _description, uint budget, address payable beneficiary, address approver) external onlyMember {\n        proposals[proposalCount] = Proposal(_description,budget,beneficiary,approver, 0, false);\n        emit ProposalCreated(proposalCount, _description);\n        proposalCount++;\n    }\n\n\n    /// @notice vote for a proposal\n    function vote(uint256 _proposalId) external onlyMember {\n        require(!proposals[_proposalId].executed, \"Already executed\");\n        proposals[_proposalId].votes++;\n        emit Voted(_proposalId, msg.sender);\n    }\n\n    /// @notice executing a proposal\n    function executeProposal(uint256 _proposalId) external onlyMember {\n        require(proposals[_proposalId].votes >= (memberNr / 2) + 1, \"Not enough votes\");\n        require(!proposals[_proposalId].executed, \"Already executed\");\n\n        // logic for executing a proposal\n        CTTreasury treasury = CTTreasury(cTTreasuryAddress);\n        require ((proposals[_proposalId].budget <= treasury.getBalance()), \"not enough budget for project\");\n        CTProject project = new CTProject(\n            proposals[_proposalId].description,\n            proposals[_proposalId].beneficiary,\n            proposals[_proposalId].approver\n            );\n        // funding the project\n        if (proposals[_proposalId].budget > 0) {\n            treasury.fund(proposals[_proposalId].budget, payable(project));\n        }\n\n        proposals[_proposalId].executed = true;\n        emit ProposalExecuted(_proposalId);\n    }\n\n}",
  "sourcePath": "/home/dsz/git/dotcharitree/contracts/CTDAO.sol",
  "compiler": {
    "name": "solc",
    "version": "0.8.21+commit.d9974bed.Emscripten.clang"
  },
  "schemaVersion": "3.4.16",
  "updatedAt": "2025-11-14T13:09:13.124Z",
  "networkType": "ethereum",
  "devdoc": {
    "author": "...",
    "kind": "dev",
    "methods": {},
    "title": "ChariTree DAO",
    "version": 1
  },
  "userdoc": {
    "kind": "user",
    "methods": {
      "createProposal(string,uint256,address,address)": {
        "notice": "create a new proposal"
      },
      "executeProposal(uint256)": {
        "notice": "executing a proposal"
      },
      "vote(uint256)": {
        "notice": "vote for a proposal"
      }
    },
    "notice": "DAO contract for ChariTree",
    "version": 1
  }
}