{
  "contractName": "CTProject",
  "abi": [
    {
      "inputs": [
        {
          "internalType": "string",
          "name": "_projectName",
          "type": "string"
        },
        {
          "internalType": "address payable",
          "name": "_beneficiary",
          "type": "address"
        },
        {
          "internalType": "address",
          "name": "_approver",
          "type": "address"
        }
      ],
      "stateMutability": "nonpayable",
      "type": "constructor"
    },
    {
      "inputs": [],
      "name": "approved",
      "outputs": [
        {
          "internalType": "bool",
          "name": "",
          "type": "bool"
        }
      ],
      "stateMutability": "view",
      "type": "function"
    },
    {
      "inputs": [],
      "name": "approver",
      "outputs": [
        {
          "internalType": "address",
          "name": "",
          "type": "address"
        }
      ],
      "stateMutability": "view",
      "type": "function"
    },
    {
      "inputs": [],
      "name": "beneficiary",
      "outputs": [
        {
          "internalType": "address payable",
          "name": "",
          "type": "address"
        }
      ],
      "stateMutability": "view",
      "type": "function"
    },
    {
      "inputs": [],
      "name": "projectName",
      "outputs": [
        {
          "internalType": "string",
          "name": "",
          "type": "string"
        }
      ],
      "stateMutability": "view",
      "type": "function"
    },
    {
      "stateMutability": "payable",
      "type": "receive"
    },
    {
      "inputs": [],
      "name": "getBalance",
      "outputs": [
        {
          "internalType": "uint256",
          "name": "",
          "type": "uint256"
        }
      ],
      "stateMutability": "view",
      "type": "function"
    },
    {
      "inputs": [],
      "name": "approve",
      "outputs": [],
      "stateMutability": "nonpayable",
      "type": "function"
    },
    {
      "inputs": [],
      "name": "claim",
      "outputs": [],
      "stateMutability": "nonpayable",
      "type": "function"
    }
  ],
  "bytecode": "0x608060405234801562000010575f80fd5b5060405162000dce38038062000dce8339818101604052810190620000369190620002f8565b825f9081620000469190620005a7565b508160015f6101000a81548173ffffffffffffffffffffffffffffffffffffffff021916908373ffffffffffffffffffffffffffffffffffffffff1602179055508060025f6101000a81548173ffffffffffffffffffffffffffffffffffffffff021916908373ffffffffffffffffffffffffffffffffffffffff1602179055505050506200068b565b5f604051905090565b5f80fd5b5f80fd5b5f80fd5b5f80fd5b5f601f19601f8301169050919050565b7f4e487b71000000000000000000000000000000000000000000000000000000005f52604160045260245ffd5b6200013182620000e9565b810181811067ffffffffffffffff82111715620001535762000152620000f9565b5b80604052505050565b5f62000167620000d0565b905062000175828262000126565b919050565b5f67ffffffffffffffff821115620001975762000196620000f9565b5b620001a282620000e9565b9050602081019050919050565b5f5b83811015620001ce578082015181840152602081019050620001b1565b5f8484015250505050565b5f620001ef620001e9846200017a565b6200015c565b9050828152602081018484840111156200020e576200020d620000e5565b5b6200021b848285620001af565b509392505050565b5f82601f8301126200023a5762000239620000e1565b5b81516200024c848260208601620001d9565b91505092915050565b5f73ffffffffffffffffffffffffffffffffffffffff82169050919050565b5f620002808262000255565b9050919050565b620002928162000274565b81146200029d575f80fd5b50565b5f81519050620002b08162000287565b92915050565b5f620002c28262000255565b9050919050565b620002d481620002b6565b8114620002df575f80fd5b50565b5f81519050620002f281620002c9565b92915050565b5f805f60608486031215620003125762000311620000d9565b5b5f84015167ffffffffffffffff811115620003325762000331620000dd565b5b620003408682870162000223565b93505060206200035386828701620002a0565b92505060406200036686828701620002e2565b9150509250925092565b5f81519050919050565b7f4e487b71000000000000000000000000000000000000000000000000000000005f52602260045260245ffd5b5f6002820490506001821680620003bf57607f821691505b602082108103620003d557620003d46200037a565b5b50919050565b5f819050815f5260205f209050919050565b5f6020601f8301049050919050565b5f82821b905092915050565b5f60088302620004397fffffffffffffffffffffffffffffffffffffffffffffffffffffffffffffffff82620003fc565b620004458683620003fc565b95508019841693508086168417925050509392505050565b5f819050919050565b5f819050919050565b5f6200048f6200048962000483846200045d565b62000466565b6200045d565b9050919050565b5f819050919050565b620004aa836200046f565b620004c2620004b98262000496565b84845462000408565b825550505050565b5f90565b620004d8620004ca565b620004e58184846200049f565b505050565b5b818110156200050c57620005005f82620004ce565b600181019050620004eb565b5050565b601f8211156200055b576200052581620003db565b6200053084620003ed565b8101602085101562000540578190505b620005586200054f85620003ed565b830182620004ea565b50505b505050565b5f82821c905092915050565b5f6200057d5f198460080262000560565b1980831691505092915050565b5f6200059783836200056c565b9150826002028217905092915050565b620005b28262000370565b67ffffffffffffffff811115620005ce57620005cd620000f9565b5b620005da8254620003a7565b620005e782828562000510565b5f60209050601f8311600181146200061d575f841562000608578287015190505b6200061485826200058a565b86555062000683565b601f1984166200062d86620003db565b5f5b8281101562000656578489015182556001820191506020850194506020810190506200062f565b8683101562000676578489015162000672601f8916826200056c565b8355505b6001600288020188555050505b505050505050565b61073580620006995f395ff3fe608060405260043610610073575f3560e01c806319d40b081161004d57806319d40b08146100e857806338af3eed146101125780634e71d92d1461013c5780639a33e300146101525761007a565b806312065fe01461007e57806312424e3f146100a8578063141a8dd8146100be5761007a565b3661007a57005b5f80fd5b348015610089575f80fd5b5061009261017c565b60405161009f919061044b565b60405180910390f35b3480156100b3575f80fd5b506100bc610183565b005b3480156100c9575f80fd5b506100d26101f8565b6040516100df91906104a3565b60405180910390f35b3480156100f3575f80fd5b506100fc61021d565b60405161010991906104d6565b60405180910390f35b34801561011d575f80fd5b50610126610230565b604051610133919061050f565b60405180910390f35b348015610147575f80fd5b50610150610255565b005b34801561015d575f80fd5b506101666103a8565b60405161017391906105b2565b60405180910390f35b5f47905090565b60025f9054906101000a900473ffffffffffffffffffffffffffffffffffffffff1673ffffffffffffffffffffffffffffffffffffffff163373ffffffffffffffffffffffffffffffffffffffff16146101db575f80fd5b6001600260146101000a81548160ff021916908315150217905550565b60025f9054906101000a900473ffffffffffffffffffffffffffffffffffffffff1681565b600260149054906101000a900460ff1681565b60015f9054906101000a900473ffffffffffffffffffffffffffffffffffffffff1681565b60011515600260149054906101000a900460ff161515146102ab576040517f08c379a00000000000000000000000000000000000000000000000000000000081526004016102a29061061c565b60405180910390fd5b3373ffffffffffffffffffffffffffffffffffffffff1660015f9054906101000a900473ffffffffffffffffffffffffffffffffffffffff1673ffffffffffffffffffffffffffffffffffffffff161461033a576040517f08c379a000000000000000000000000000000000000000000000000000000000815260040161033190610684565b60405180910390fd5b60015f9054906101000a900473ffffffffffffffffffffffffffffffffffffffff1673ffffffffffffffffffffffffffffffffffffffff166108fc61037d61017c565b90811502906040515f60405180830381858888f193505050501580156103a5573d5f803e3d5ffd5b50565b5f80546103b4906106cf565b80601f01602080910402602001604051908101604052809291908181526020018280546103e0906106cf565b801561042b5780601f106104025761010080835404028352916020019161042b565b820191905f5260205f20905b81548152906001019060200180831161040e57829003601f168201915b505050505081565b5f819050919050565b61044581610433565b82525050565b5f60208201905061045e5f83018461043c565b92915050565b5f73ffffffffffffffffffffffffffffffffffffffff82169050919050565b5f61048d82610464565b9050919050565b61049d81610483565b82525050565b5f6020820190506104b65f830184610494565b92915050565b5f8115159050919050565b6104d0816104bc565b82525050565b5f6020820190506104e95f8301846104c7565b92915050565b5f6104f982610464565b9050919050565b610509816104ef565b82525050565b5f6020820190506105225f830184610500565b92915050565b5f81519050919050565b5f82825260208201905092915050565b5f5b8381101561055f578082015181840152602081019050610544565b5f8484015250505050565b5f601f19601f8301169050919050565b5f61058482610528565b61058e8185610532565b935061059e818560208601610542565b6105a78161056a565b840191505092915050565b5f6020820190508181035f8301526105ca818461057a565b905092915050565b7f636c61696d20776f726b73206f6e6c7920696620617070726f766564000000005f82015250565b5f610606601c83610532565b9150610611826105d2565b602082019050919050565b5f6020820190508181035f830152610633816105fa565b9050919050565b7f6f6e6c792062656e65666963696172792063616e20636c61696d0000000000005f82015250565b5f61066e601a83610532565b91506106798261063a565b602082019050919050565b5f6020820190508181035f83015261069b81610662565b9050919050565b7f4e487b71000000000000000000000000000000000000000000000000000000005f52602260045260245ffd5b5f60028204905060018216806106e657607f821691505b6020821081036106f9576106f86106a2565b5b5091905056fea26469706673582212205e02f7fd5bd6393278e27aff1215494c441c47a5728dd5a88ba77ab77a60d57b64736f6c63430008150033",
  "immutableReferences": {},
  "source": "// SPDX-License-Identifier: MIT\npragma solidity ^0.8.20;\n\n/// @title ChariTree Project template\n/// @author ...\n/// @notice Project template contract for ChariTree\ncontract CTProject {\n    // properties\n    string public projectName;\n    address payable public beneficiary;\n    address public approver;\n    bool public approved;\n\n\n    // constructor\n    constructor(string memory _projectName, address payable _beneficiary, address _approver){  \n        projectName = _projectName;\n        beneficiary = _beneficiary;\n        approver = _approver;\n    }\n\n    // modifiers\n    modifier onlyApprover{\n        require((msg.sender == approver));\n        _;\n    }\n\n    modifier onlyBeneficiare{\n        require((msg.sender == beneficiary));\n        _;\n    }\n\n    /// @notice Returns the current ETH balance of the treasury\n    function getBalance() public view returns (uint256) {\n        return address(this).balance;\n    }\n\n    // defining project template as payable\n    receive() external payable {\n    }\n\n    // approve payout \n    function approve() onlyApprover public {\n        approved = true;\n    }\n\n    // beneficiary can claim the funds if approved\n    function claim() public {\n        require ((approved == true),\"claim works only if approved\");\n        require ((beneficiary == msg.sender),\"only beneficiary can claim\");\n        beneficiary.transfer(getBalance());\n    }\n}",
  "sourcePath": "/home/dsz/git/dotcharitree/contracts/CTProject.sol",
  "compiler": {
    "name": "solc",
    "version": "0.8.21+commit.d9974bed.Emscripten.clang"
  },
  "schemaVersion": "3.4.16",
  "updatedAt": "2025-11-14T13:08:57.875Z",
  "devdoc": {
    "author": "...",
    "kind": "dev",
    "methods": {},
    "title": "ChariTree Project template",
    "version": 1
  },
  "userdoc": {
    "kind": "user",
    "methods": {
      "getBalance()": {
        "notice": "Returns the current ETH balance of the treasury"
      }
    },
    "notice": "Project template contract for ChariTree",
    "version": 1
  }
}