{
  "contractName": "CTProject",
  "abi": [
    {
      "inputs": [
        {
          "internalType": "string",
          "name": "_projectName",
          "type": "string"
        },
        {
          "internalType": "address",
          "name": "_beneficiary",
          "type": "address"
        }
      ],
      "stateMutability": "nonpayable",
      "type": "constructor"
    },
    {
      "inputs": [],
      "name": "beneficiary",
      "outputs": [
        {
          "internalType": "address",
          "name": "",
          "type": "address"
        }
      ],
      "stateMutability": "view",
      "type": "function"
    },
    {
      "inputs": [],
      "name": "projectName",
      "outputs": [
        {
          "internalType": "string",
          "name": "",
          "type": "string"
        }
      ],
      "stateMutability": "view",
      "type": "function"
    },
    {
      "inputs": [],
      "name": "getBalance",
      "outputs": [
        {
          "internalType": "uint256",
          "name": "",
          "type": "uint256"
        }
      ],
      "stateMutability": "view",
      "type": "function"
    }
  ],
  "bytecode": "0x608060405234801562000010575f80fd5b506040516200091c3803806200091c833981810160405281019062000036919062000275565b815f908162000046919062000510565b508060015f6101000a81548173ffffffffffffffffffffffffffffffffffffffff021916908373ffffffffffffffffffffffffffffffffffffffff1602179055505050620005f4565b5f604051905090565b5f80fd5b5f80fd5b5f80fd5b5f80fd5b5f601f19601f8301169050919050565b7f4e487b71000000000000000000000000000000000000000000000000000000005f52604160045260245ffd5b620000f082620000a8565b810181811067ffffffffffffffff82111715620001125762000111620000b8565b5b80604052505050565b5f620001266200008f565b9050620001348282620000e5565b919050565b5f67ffffffffffffffff821115620001565762000155620000b8565b5b6200016182620000a8565b9050602081019050919050565b5f5b838110156200018d57808201518184015260208101905062000170565b5f8484015250505050565b5f620001ae620001a88462000139565b6200011b565b905082815260208101848484011115620001cd57620001cc620000a4565b5b620001da8482856200016e565b509392505050565b5f82601f830112620001f957620001f8620000a0565b5b81516200020b84826020860162000198565b91505092915050565b5f73ffffffffffffffffffffffffffffffffffffffff82169050919050565b5f6200023f8262000214565b9050919050565b620002518162000233565b81146200025c575f80fd5b50565b5f815190506200026f8162000246565b92915050565b5f80604083850312156200028e576200028d62000098565b5b5f83015167ffffffffffffffff811115620002ae57620002ad6200009c565b5b620002bc85828601620001e2565b9250506020620002cf858286016200025f565b9150509250929050565b5f81519050919050565b7f4e487b71000000000000000000000000000000000000000000000000000000005f52602260045260245ffd5b5f60028204905060018216806200032857607f821691505b6020821081036200033e576200033d620002e3565b5b50919050565b5f819050815f5260205f209050919050565b5f6020601f8301049050919050565b5f82821b905092915050565b5f60088302620003a27fffffffffffffffffffffffffffffffffffffffffffffffffffffffffffffffff8262000365565b620003ae868362000365565b95508019841693508086168417925050509392505050565b5f819050919050565b5f819050919050565b5f620003f8620003f2620003ec84620003c6565b620003cf565b620003c6565b9050919050565b5f819050919050565b6200041383620003d8565b6200042b6200042282620003ff565b84845462000371565b825550505050565b5f90565b6200044162000433565b6200044e81848462000408565b505050565b5b818110156200047557620004695f8262000437565b60018101905062000454565b5050565b601f821115620004c4576200048e8162000344565b620004998462000356565b81016020851015620004a9578190505b620004c1620004b88562000356565b83018262000453565b50505b505050565b5f82821c905092915050565b5f620004e65f1984600802620004c9565b1980831691505092915050565b5f620005008383620004d5565b9150826002028217905092915050565b6200051b82620002d9565b67ffffffffffffffff811115620005375762000536620000b8565b5b62000543825462000310565b6200055082828562000479565b5f60209050601f83116001811462000586575f841562000571578287015190505b6200057d8582620004f3565b865550620005ec565b601f198416620005968662000344565b5f5b82811015620005bf5784890151825560018201915060208501945060208101905062000598565b86831015620005df5784890151620005db601f891682620004d5565b8355505b6001600288020188555050505b505050505050565b61031a80620006025f395ff3fe608060405234801561000f575f80fd5b506004361061003f575f3560e01c806312065fe01461004357806338af3eed146100615780639a33e3001461007f575b5f80fd5b61004b61009d565b604051610058919061016c565b60405180910390f35b6100696100a4565b60405161007691906101c4565b60405180910390f35b6100876100c9565b6040516100949190610267565b60405180910390f35b5f47905090565b60015f9054906101000a900473ffffffffffffffffffffffffffffffffffffffff1681565b5f80546100d5906102b4565b80601f0160208091040260200160405190810160405280929190818152602001828054610101906102b4565b801561014c5780601f106101235761010080835404028352916020019161014c565b820191905f5260205f20905b81548152906001019060200180831161012f57829003601f168201915b505050505081565b5f819050919050565b61016681610154565b82525050565b5f60208201905061017f5f83018461015d565b92915050565b5f73ffffffffffffffffffffffffffffffffffffffff82169050919050565b5f6101ae82610185565b9050919050565b6101be816101a4565b82525050565b5f6020820190506101d75f8301846101b5565b92915050565b5f81519050919050565b5f82825260208201905092915050565b5f5b838110156102145780820151818401526020810190506101f9565b5f8484015250505050565b5f601f19601f8301169050919050565b5f610239826101dd565b61024381856101e7565b93506102538185602086016101f7565b61025c8161021f565b840191505092915050565b5f6020820190508181035f83015261027f818461022f565b905092915050565b7f4e487b71000000000000000000000000000000000000000000000000000000005f52602260045260245ffd5b5f60028204905060018216806102cb57607f821691505b6020821081036102de576102dd610287565b5b5091905056fea2646970667358221220e3f3f7ce85fdf0b80b691217886097ec78d5818a5d767514c99775357b406ad964736f6c63430008150033",
  "immutableReferences": {},
  "source": "// SPDX-License-Identifier: MIT\npragma solidity ^0.8.20;\n\n/// @title ChariTree Project template\n/// @author ...\n/// @notice Project template contract for ChariTree\ncontract CTProject {\n    // properties\n    string public projectName;\n    address public beneficiary;\n\n    // constructor\n    constructor(string memory _projectName, address _beneficiary){  \n        projectName = _projectName;\n        beneficiary = _beneficiary;\n    }\n\n    /// @notice Returns the current ETH balance of the treasury\n    function getBalance() external view returns (uint256) {\n        return address(this).balance;\n    }\n\n}",
  "sourcePath": "/home/dsz/git/dotcharitree/contracts/CTProject.sol",
  "compiler": {
    "name": "solc",
    "version": "0.8.21+commit.d9974bed.Emscripten.clang"
  },
  "schemaVersion": "3.4.16",
  "updatedAt": "2025-11-10T05:28:55.895Z",
  "devdoc": {
    "author": "...",
    "kind": "dev",
    "methods": {},
    "title": "ChariTree Project template",
    "version": 1
  },
  "userdoc": {
    "kind": "user",
    "methods": {
      "getBalance()": {
        "notice": "Returns the current ETH balance of the treasury"
      }
    },
    "notice": "Project template contract for ChariTree",
    "version": 1
  }
}