{
  "contractName": "CTTreasury",
  "abi": [
    {
      "inputs": [
        {
          "internalType": "uint256",
          "name": "_exchangeRate",
          "type": "uint256"
        },
        {
          "internalType": "address",
          "name": "_cTokenAddress",
          "type": "address"
        }
      ],
      "stateMutability": "nonpayable",
      "type": "constructor"
    },
    {
      "inputs": [
        {
          "internalType": "address",
          "name": "owner",
          "type": "address"
        }
      ],
      "name": "OwnableInvalidOwner",
      "type": "error"
    },
    {
      "inputs": [
        {
          "internalType": "address",
          "name": "account",
          "type": "address"
        }
      ],
      "name": "OwnableUnauthorizedAccount",
      "type": "error"
    },
    {
      "anonymous": false,
      "inputs": [
        {
          "indexed": false,
          "internalType": "address",
          "name": "daoAddress",
          "type": "address"
        }
      ],
      "name": "DAOAddressSet",
      "type": "event"
    },
    {
      "anonymous": false,
      "inputs": [
        {
          "indexed": true,
          "internalType": "address",
          "name": "from",
          "type": "address"
        },
        {
          "indexed": false,
          "internalType": "uint256",
          "name": "amount",
          "type": "uint256"
        }
      ],
      "name": "Donated",
      "type": "event"
    },
    {
      "anonymous": false,
      "inputs": [
        {
          "indexed": true,
          "internalType": "address",
          "name": "previousOwner",
          "type": "address"
        },
        {
          "indexed": true,
          "internalType": "address",
          "name": "newOwner",
          "type": "address"
        }
      ],
      "name": "OwnershipTransferred",
      "type": "event"
    },
    {
      "inputs": [],
      "name": "cDAOAddress",
      "outputs": [
        {
          "internalType": "address",
          "name": "",
          "type": "address"
        }
      ],
      "stateMutability": "view",
      "type": "function",
      "constant": true
    },
    {
      "inputs": [],
      "name": "cTokenAddress",
      "outputs": [
        {
          "internalType": "address",
          "name": "",
          "type": "address"
        }
      ],
      "stateMutability": "view",
      "type": "function",
      "constant": true
    },
    {
      "inputs": [],
      "name": "exchangeRate",
      "outputs": [
        {
          "internalType": "uint256",
          "name": "",
          "type": "uint256"
        }
      ],
      "stateMutability": "view",
      "type": "function",
      "constant": true
    },
    {
      "inputs": [],
      "name": "owner",
      "outputs": [
        {
          "internalType": "address",
          "name": "",
          "type": "address"
        }
      ],
      "stateMutability": "view",
      "type": "function",
      "constant": true
    },
    {
      "inputs": [],
      "name": "renounceOwnership",
      "outputs": [],
      "stateMutability": "nonpayable",
      "type": "function"
    },
    {
      "inputs": [
        {
          "internalType": "address",
          "name": "newOwner",
          "type": "address"
        }
      ],
      "name": "transferOwnership",
      "outputs": [],
      "stateMutability": "nonpayable",
      "type": "function"
    },
    {
      "stateMutability": "payable",
      "type": "receive",
      "payable": true
    },
    {
      "inputs": [],
      "name": "getBalance",
      "outputs": [
        {
          "internalType": "uint256",
          "name": "",
          "type": "uint256"
        }
      ],
      "stateMutability": "view",
      "type": "function",
      "constant": true
    },
    {
      "inputs": [
        {
          "internalType": "address",
          "name": "_newDAOAddress",
          "type": "address"
        }
      ],
      "name": "setDAOAddres",
      "outputs": [],
      "stateMutability": "nonpayable",
      "type": "function"
    },
    {
      "inputs": [],
      "name": "donate",
      "outputs": [],
      "stateMutability": "payable",
      "type": "function",
      "payable": true
    },
    {
      "inputs": [
        {
          "internalType": "uint256",
          "name": "_amount",
          "type": "uint256"
        },
        {
          "internalType": "address payable",
          "name": "_to",
          "type": "address"
        }
      ],
      "name": "fund",
      "outputs": [],
      "stateMutability": "nonpayable",
      "type": "function"
    }
  ],
  "bytecode": "0x608060405234801562000010575f80fd5b5060405162000e2638038062000e26833981810160405281019062000036919062000269565b335f73ffffffffffffffffffffffffffffffffffffffff168173ffffffffffffffffffffffffffffffffffffffff1603620000aa575f6040517f1e4fbdf7000000000000000000000000000000000000000000000000000000008152600401620000a19190620002bf565b60405180910390fd5b620000bb816200010b60201b60201c565b50816001819055508060025f6101000a81548173ffffffffffffffffffffffffffffffffffffffff021916908373ffffffffffffffffffffffffffffffffffffffff1602179055505050620002da565b5f805f9054906101000a900473ffffffffffffffffffffffffffffffffffffffff169050815f806101000a81548173ffffffffffffffffffffffffffffffffffffffff021916908373ffffffffffffffffffffffffffffffffffffffff1602179055508173ffffffffffffffffffffffffffffffffffffffff168173ffffffffffffffffffffffffffffffffffffffff167f8be0079c531659141344cd1fd0a4f28419497f9722a3daafe3b4186f6b6457e060405160405180910390a35050565b5f80fd5b5f819050919050565b620001e481620001d0565b8114620001ef575f80fd5b50565b5f815190506200020281620001d9565b92915050565b5f73ffffffffffffffffffffffffffffffffffffffff82169050919050565b5f620002338262000208565b9050919050565b620002458162000227565b811462000250575f80fd5b50565b5f8151905062000263816200023a565b92915050565b5f8060408385031215620002825762000281620001cc565b5b5f6200029185828601620001f2565b9250506020620002a48582860162000253565b9150509250929050565b620002b98162000227565b82525050565b5f602082019050620002d45f830184620002ae565b92915050565b610b3e80620002e85f395ff3fe608060405260043610610094575f3560e01c8063833e231e11610058578063833e231e146101655780638da5cb5b1461018f578063ed88c68e146101b9578063eee92395146101c3578063f2fde38b146101eb576100a5565b806312065fe0146100a9578063399164cc146100d35780633ba0b9a9146100fb578063715018a6146101255780637390199f1461013b576100a5565b366100a5576100a33334610213565b005b5f80fd5b3480156100b4575f80fd5b506100bd610305565b6040516100ca919061078e565b60405180910390f35b3480156100de575f80fd5b506100f960048036038101906100f49190610805565b61030c565b005b348015610106575f80fd5b5061010f61038e565b60405161011c919061078e565b60405180910390f35b348015610130575f80fd5b50610139610394565b005b348015610146575f80fd5b5061014f6103a7565b60405161015c919061083f565b60405180910390f35b348015610170575f80fd5b506101796103cc565b604051610186919061083f565b60405180910390f35b34801561019a575f80fd5b506101a36103f1565b6040516101b0919061083f565b60405180910390f35b6101c1610418565b005b3480156101ce575f80fd5b506101e960048036038101906101e491906108bd565b610424565b005b3480156101f6575f80fd5b50610211600480360381019061020c9190610805565b6105a3565b005b5f60025f9054906101000a900473ffffffffffffffffffffffffffffffffffffffff1690505f600154346102479190610928565b90508173ffffffffffffffffffffffffffffffffffffffff166340c10f1985836040518363ffffffff1660e01b8152600401610284929190610958565b5f604051808303815f87803b15801561029b575f80fd5b505af11580156102ad573d5f803e3d5ffd5b505050508373ffffffffffffffffffffffffffffffffffffffff167f2a01595cddf097c90216094025db714da3f4e5bd8877b56ba86a24ecead8e543846040516102f7919061078e565b60405180910390a250505050565b5f47905090565b610314610627565b8060035f6101000a81548173ffffffffffffffffffffffffffffffffffffffff021916908373ffffffffffffffffffffffffffffffffffffffff1602179055507f7138c17e9cd38b1f65ba47723efdaec045a981aa53992018fd215e5c09a22fc481604051610383919061083f565b60405180910390a150565b60015481565b61039c610627565b6103a55f6106ae565b565b60035f9054906101000a900473ffffffffffffffffffffffffffffffffffffffff1681565b60025f9054906101000a900473ffffffffffffffffffffffffffffffffffffffff1681565b5f805f9054906101000a900473ffffffffffffffffffffffffffffffffffffffff16905090565b6104223334610213565b565b60035f9054906101000a900473ffffffffffffffffffffffffffffffffffffffff1673ffffffffffffffffffffffffffffffffffffffff163373ffffffffffffffffffffffffffffffffffffffff16146104b3576040517f08c379a00000000000000000000000000000000000000000000000000000000081526004016104aa906109d9565b60405180910390fd5b814710156104f6576040517f08c379a00000000000000000000000000000000000000000000000000000000081526004016104ed90610a41565b60405180910390fd5b5f8173ffffffffffffffffffffffffffffffffffffffff168360405161051b90610a8c565b5f6040518083038185875af1925050503d805f8114610555576040519150601f19603f3d011682016040523d82523d5f602084013e61055a565b606091505b505090508061059e576040517f08c379a000000000000000000000000000000000000000000000000000000000815260040161059590610aea565b60405180910390fd5b505050565b6105ab610627565b5f73ffffffffffffffffffffffffffffffffffffffff168173ffffffffffffffffffffffffffffffffffffffff160361061b575f6040517f1e4fbdf7000000000000000000000000000000000000000000000000000000008152600401610612919061083f565b60405180910390fd5b610624816106ae565b50565b61062f61076f565b73ffffffffffffffffffffffffffffffffffffffff1661064d6103f1565b73ffffffffffffffffffffffffffffffffffffffff16146106ac5761067061076f565b6040517f118cdaa70000000000000000000000000000000000000000000000000000000081526004016106a3919061083f565b60405180910390fd5b565b5f805f9054906101000a900473ffffffffffffffffffffffffffffffffffffffff169050815f806101000a81548173ffffffffffffffffffffffffffffffffffffffff021916908373ffffffffffffffffffffffffffffffffffffffff1602179055508173ffffffffffffffffffffffffffffffffffffffff168173ffffffffffffffffffffffffffffffffffffffff167f8be0079c531659141344cd1fd0a4f28419497f9722a3daafe3b4186f6b6457e060405160405180910390a35050565b5f33905090565b5f819050919050565b61078881610776565b82525050565b5f6020820190506107a15f83018461077f565b92915050565b5f80fd5b5f73ffffffffffffffffffffffffffffffffffffffff82169050919050565b5f6107d4826107ab565b9050919050565b6107e4816107ca565b81146107ee575f80fd5b50565b5f813590506107ff816107db565b92915050565b5f6020828403121561081a576108196107a7565b5b5f610827848285016107f1565b91505092915050565b610839816107ca565b82525050565b5f6020820190506108525f830184610830565b92915050565b61086181610776565b811461086b575f80fd5b50565b5f8135905061087c81610858565b92915050565b5f61088c826107ab565b9050919050565b61089c81610882565b81146108a6575f80fd5b50565b5f813590506108b781610893565b92915050565b5f80604083850312156108d3576108d26107a7565b5b5f6108e08582860161086e565b92505060206108f1858286016108a9565b9150509250929050565b7f4e487b71000000000000000000000000000000000000000000000000000000005f52601260045260245ffd5b5f61093282610776565b915061093d83610776565b92508261094d5761094c6108fb565b5b828204905092915050565b5f60408201905061096b5f830185610830565b610978602083018461077f565b9392505050565b5f82825260208201905092915050565b7f6f6e6c79207468652044414f2063616e2063616c6c207468652066756e6400005f82015250565b5f6109c3601e8361097f565b91506109ce8261098f565b602082019050919050565b5f6020820190508181035f8301526109f0816109b7565b9050919050565b7f496e73756666696369656e742062616c616e63650000000000000000000000005f82015250565b5f610a2b60148361097f565b9150610a36826109f7565b602082019050919050565b5f6020820190508181035f830152610a5881610a1f565b9050919050565b5f81905092915050565b50565b5f610a775f83610a5f565b9150610a8282610a69565b5f82019050919050565b5f610a9682610a6c565b9150819050919050565b7f5472616e73666572206661696c656400000000000000000000000000000000005f82015250565b5f610ad4600f8361097f565b9150610adf82610aa0565b602082019050919050565b5f6020820190508181035f830152610b0181610ac8565b905091905056fea2646970667358221220ebcac1d385c439b8a995d5c0a7d835052024b3950f429ce660e5570a7b8bc7ec64736f6c63430008150033",
  "immutableReferences": {},
  "source": "// SPDX-License-Identifier: MIT\npragma solidity ^0.8.20;\n\nimport \"./CTToken.sol\";\nimport \"@openzeppelin/contracts/token/ERC20/IERC20.sol\";\nimport \"@openzeppelin/contracts/access/Ownable.sol\";\n\n/// @title ChariTree Treasury Contract\n/// @author ...\n/// @notice Treasury contract for ChariTree\ncontract CTTreasury is Ownable {\n    // exchange rate ETH for token\n    uint public exchangeRate;\n    address public cTokenAddress;\n    address public cDAOAddress;\n\n    constructor(uint _exchangeRate, address _cTokenAddress) Ownable(msg.sender) {\n        exchangeRate = _exchangeRate;\n        cTokenAddress = _cTokenAddress;\n    }\n\n    // Events for logging\n    event Donated(address indexed from, uint256 amount);\n    event DAOAddressSet(address daoAddress);\n\n    /// @notice Returns the current ETH balance of the treasury\n    function getBalance() external view returns (uint256) {\n        return address(this).balance;\n    }\n\n    /// @notice Returns the current ETH balance of the treasury\n    function setDAOAddres(address _newDAOAddress) onlyOwner() public {\n        cDAOAddress = _newDAOAddress;\n        emit DAOAddressSet(_newDAOAddress);\n    }\n\n    /// @notice Donate ETH into the treasury\n    receive() external payable {\n        donate_i(msg.sender, msg.value);\n    }\n\n    /// @notice Allows anyone to donate ETH via a function call\n    function donate() external payable {\n        donate_i(msg.sender, msg.value);\n    }\n\n    /// @notice Internal donate function\n    function donate_i(address from, uint amount) internal {\n        CTToken cTToken = CTToken(cTokenAddress);        \n        uint amountToMint = msg.value / exchangeRate;\n        cTToken.mint(from, amountToMint);\n        emit Donated(from, amount);\n    }\n\n    /// @notice Fund a project from the treasury (only owner)\n    /// @param _amount Amount in wei to withdraw\n    /// @param _to Address to receive the withdrawn ETH\n    function fund (uint256 _amount, address payable _to) external {\n        require((msg.sender == cDAOAddress), \"only the DAO can call the fund\");\n        require(address(this).balance >= _amount, \"Insufficient balance\");\n        (bool sent, ) = _to.call{value: _amount}(\"\");\n        require(sent, \"Transfer failed\");\n    }\n\n\n}",
  "sourcePath": "/home/dsz/git/dotcharitree/contracts/CTTreasury.sol",
  "compiler": {
    "name": "solc",
    "version": "0.8.21+commit.d9974bed.Emscripten.clang"
  },
  "schemaVersion": "3.4.16",
  "updatedAt": "2025-11-14T13:09:13.114Z",
  "networkType": "ethereum",
  "devdoc": {
    "author": "...",
    "errors": {
      "OwnableInvalidOwner(address)": [
        {
          "details": "The owner is not a valid owner account. (eg. `address(0)`)"
        }
      ],
      "OwnableUnauthorizedAccount(address)": [
        {
          "details": "The caller account is not authorized to perform an operation."
        }
      ]
    },
    "kind": "dev",
    "methods": {
      "fund(uint256,address)": {
        "params": {
          "_amount": "Amount in wei to withdraw",
          "_to": "Address to receive the withdrawn ETH"
        }
      },
      "owner()": {
        "details": "Returns the address of the current owner."
      },
      "renounceOwnership()": {
        "details": "Leaves the contract without owner. It will not be possible to call `onlyOwner` functions. Can only be called by the current owner. NOTE: Renouncing ownership will leave the contract without an owner, thereby disabling any functionality that is only available to the owner."
      },
      "transferOwnership(address)": {
        "details": "Transfers ownership of the contract to a new account (`newOwner`). Can only be called by the current owner."
      }
    },
    "title": "ChariTree Treasury Contract",
    "version": 1
  },
  "userdoc": {
    "kind": "user",
    "methods": {
      "donate()": {
        "notice": "Allows anyone to donate ETH via a function call"
      },
      "fund(uint256,address)": {
        "notice": "Fund a project from the treasury (only owner)"
      },
      "getBalance()": {
        "notice": "Returns the current ETH balance of the treasury"
      },
      "setDAOAddres(address)": {
        "notice": "Returns the current ETH balance of the treasury"
      }
    },
    "notice": "Treasury contract for ChariTree",
    "version": 1
  }
}